0072066100999991973010100004+46817+006950FM-12+048999999V0202001N00101220001CN0080001N9-00701-00801102761ADDAY101999GF100991001001999999001001MA1999999096531MD1810051+9999MW1021
0119066100999991973010106004+46817+006950FM-12+048999999V0209991C00001220001CN0080001N9-00601-00701102671ADDAA199000091AJ100009199999999AY101999GF100991001001999999001001IA1139KA1999N-00701MA1999999096481MW1021REMSYN00526330
0091066100999991973010109004+46817+006950FM-12+048999999V0209991C00001036001CN0040001N9-00501-00601102671ADDAY121999GF107991071001999999071001MA1999999096481MW1101REMSYN00569?52EQDQ01+999990APOSP 
0138066100999991973010112004+46817+006950FM-12+048999999V0209991C00001036001CN0050001N9+00201-00301102451ADDAA199000091AY121999GF107991021051012501071999MA1999999096421MD1710061+9999MW1101REMSYN01169642 700//EQDQ01+105013APOSLPQ02+999990APOSLP
0091066100999991973010115004+46817+006950FM-12+048999999V0209991C00001036001CN0050001N9-00101-00201102431ADDAY121999GF107991031051012501071999MA1999999096341MD1610101+9999MW1101EQDQ01+999990APOSP 
0064066100999991973010118004+46817+006950FM-12+048999999V0201801N00151036001CN0040001N9-00201-00301102571ADDGF107991071001999999071999MA1999999096421MD1210101+9999MW1701
0091066100999991973010121004+46817+006950FM-12+048999999V0201501N00051036001CN0060001N9-00201-00301102691ADDAY121999GF105991051001999999071999MA1999999096561MD1110121+9999MW1101EQDQ01+999990APOSP 
0072066100999991973010200004+46817+006950FM-12+048999999V0209991C00001036001CN0060001N9-00201-00401102781ADDAY121999GF106991061001999999071999MA1999999096631MD1110091+9999MW1101
0091066100999991973010203004+46817+006950FM-12+048999999V0200501N00051220001CN0050001N9-00401-00501102861ADDAY121999GF101991011001999999071999MA1999999096681MD1210041+9999MW1101EQDQ01+999990APOSP 
0133066100999991973010206004+46817+006950FM-12+048999999V0201801N00151220001CN0050001N9-00501-00601102921ADDAA199000091AJ100009199999999AY101999GF102991021001999999071999IA1139KA1999N-00601MA1999999096731MD1310061+9999MW1101REMSYN00526030
0091066100999991973010209004+46817+006950FM-12+048999999V0209991C00001220001CN0040001N9-00501-00701103091ADDAY101999GF101991011001999999071021MA1999999096871MD1210171+9999MW1101EQDQ01+999990APOSP 
0102066100999991973010212004+46817+006950FM-12+048999999V0202201N00101000301CN0002001N9-00201-00201102891ADDAA106000091AY141999GF109991091999999999999999MA1999999096781MD1810121+9999MW1471EQDQ01  00003PRCP99
0072066100999991973010215004+46817+006950FM-12+048999999V0202301N00151000301CN0003001N9-00201-00201102851ADDAY141999GF109991091999999999999999MA1999999096741MD1610041+9999MW1431
0096066100999991973010218004+46817+006950FM-12+048999999V0200501N00051000151CN0001001N9-00201-00201102861ADDAA199000091AY141999GF109991091999999999999999KA1999M-00101MA1999999096711MD1710031+9999MW1471
0072066100999991973010221004+46817+006950FM-12+048999999V0209991C00001000301CN0003001N9-00301-00301102841ADDAY141999GF109991091999999999999999MA1999999096691MD1810021+9999MW1431
0072066100999991973010300004+46817+006950FM-12+048999999V0201801N00101000601CN0020001N9-00301-00401102841ADDAY121999GF108991081071000751999999MA1999999096691MD1410001+9999MW1101
0072066100999991973010303004+46817+006950FM-12+048999999V0201701N00151000601CN0015001N9-00201-00201102841ADDAY121999GF108991081071000751999999MA1999999096691MD1410001+9999MW1101
0139066100999991973010306004+46817+006950FM-12+048999999V0201701N00051000601CN0020001N9-00201-00201102831ADDAA199000091AJ100009199999999AY121999GF108991081071000751999999IA1139KA1999N-00401MA1999999096721MD1210031+9999MW1101REMSYN01126030 94000
0091066100999991973010309004+46817+006950FM-12+048999999V0200201N00101036001CN0030001N9-00101-00101102981ADDAY121999GF108991081001999999071999MA1999999096861MD1210151+9999MW1101EQDQ01+999990APOSP 
0102066100999991973010312004+46817+006950FM-12+048999999V0200301N00151036001CN0030001N9+00101+00001102911ADDAA106999929AY161999GF108991081001999999071999MA1999999096851MD1810021+9999MW1101EQDQ01  99993PRCP99
0072066100999991973010315004+46817+006950FM-12+048999999V0200501N00151220001CN0030001N9+00201-00101102841ADDAY121999GF106991041001999999071011MA1999999096831MD1510021+9999MW1101
0096066100999991973010318004+46817+006950FM-12+048999999V0209991C00001220001CN0030001N9-00101-00101103051ADDAA199999929AY111999GF103991001001999999001011KA1999M+00201MA1999999096941MD1210111+9999MW1101
0091066100999991973010321004+46817+006950FM-12+048999999V0200401N00101220001CN0030001N9-00201-00201103171ADDAY101999GF103991001001999999001011MA1999999097011MD1210071+9999MW1101EQDQ01+999990APOSP 
0102066100999991973010400004+46817+006950FM-12+048999999V0209991C00001220001CN0020001N9-00401-00401103291ADDAA106000091AY101999GF100991001001999999001001MA1999999097031MD1210021+9999MW1101EQDQ01  00003PRCP99
0072066100999991973010403004+46817+006950FM-12+048999999V0209991C00001220001CN0015001N9-00501-00501103281ADDAY101999GF100991001001999999001001MA1999999097021MD1710011+9999MW1101
0077066100999991973010406004+46817+006950FM-12+048999999V0200401N001519999999N0020001N9-00301+99999103221ADDAY111999GF108991061011999999999081MA1999999097041MW1101EQDQ01+999990APOSP 
0072066100999991973010409004+46817+006950FM-12+048999999V0200401N00151000601CN0015001N9-00201-00201103301ADDAY121999GF108991081061000751999999MA1999999097091MD1210081+9999MW1101
0102066100999991973010412004+46817+006950FM-12+048999999V0200301N00411001201CN0020001N9-00101-00101103221ADDAA106000091AY121999GF108991081061001501999999MA1999999097061MD1810031+9999MW1101EQDQ01  00003PRCP99
0072066100999991973010415004+46817+006950FM-12+048999999V0200301N00411001201CN0030001N9+00001-00101103041ADDAY121999GF108991081061001501999999MA1999999096981MD1710081+9999MW1101
0096066100999991973010418004+46817+006950FM-12+048999999V0200501N00511002101CN0030001N9+00001-00101103141ADDAA199000091AY121999GF108991081061002501999999KA1999M+00001MA1999999097021MD1210041+9999MW1101
0072066100999991973010421004+46817+006950FM-12+048999999V0200401N00461002101CN0030001N9+00001-00101103141ADDAY121999GF108991081061002501999999MA1999999097021MD1410001+9999MW1101
0102066100999991973010500004+46817+006950FM-12+048999999V0200401N00461002101CN0050001N9+00001-00101103181ADDAA106000091AY121999GF108991081061002501999999MA1999999097061MD1210041+9999MW1101EQDQ01  00003PRCP99
0072066100999991973010503004+46817+006950FM-12+048999999V0200201N00461007501CN0050001N9+00001-00101103221ADDAY121999GF108991081061008001999999MA1999999097101MD1210041+9999MW1101
0139066100999991973010506004+46817+006950FM-12+048999999V0200401N00301007501CN0050001N9+00001+00001103261ADDAA199000091AJ100009199999999AY121999GF108991081061008001999999IA1139KA1999N+00001MA1999999097101MD1410001+9999MW1101REMSYN01125  0 94000
0072066100999991973010509004+46817+006950FM-12+048999999V0200301N00301007501CN0050001N9+00001-00101103321ADDAY121999GF108991081061008001999999MA1999999097161MD1210061+9999MW1101
0102066100999991973010512004+46817+006950FM-12+048999999V0200301N00301004201CN0040001N9+00001-00201103291ADDAA106000091AY121999GF108991081061004501999999MA1999999097171MD1010011+9999MW1101EQDQ01  00003PRCP99
0072066100999991973010515004+46817+006950FM-12+048999999V0200301N00301004201CN0040001N9+00001-00301103351ADDAY121999GF108991081061004501999999MA1999999097231MD1310061+9999MW1101
0096066100999991973010518004+46817+006950FM-12+048999999V0200401N00101004201CN0030001N9+00001-00201103471ADDAA199000091AY121999GF108991081061004501999999KA1999M+00001MA1999999097311MD1210081+9999MW1101
0072066100999991973010521004+46817+006950FM-12+048999999V0200401N00251004201CN0030001N9+00001-00101103471ADDAY121999GF108991081061004501999999MA1999999097371MD1010001+9999MW1101
0102066100999991973010600004+46817+006950FM-12+048999999V0200401N00251004201CN0050001N9+00001-00301103461ADDAA106000091AY121999GF108991081061004501999999MA1999999097301MD1710011+9999MW1101EQDQ01  00003PRCP99
0072066100999991973010603004+46817+006950FM-12+048999999V0200501N00251004201CN0050001N9+00001-00301103441ADDAY121999GF108991081061004501999999MA1999999097281MD1710021+9999MW1101
0139066100999991973010606004+46817+006950FM-12+048999999V0200401N00251004201CN0050001N9-00101-00101103441ADDAA199000091AJ100009199999999AY121999GF108991081061004501999999IA1139KA1999N-00101MA1999999097281MD1410001+9999MW1101REMSYN01125330 94000
0102066100999991973010612004+46817+006950FM-12+048999999V0200401N00251004201CN0025001N9+00001-00201103431ADDAA106000091AY121999GF108991081061004501999999MA1999999097371MD1010031+9999MW1101EQDQ01  00003PRCP99
0072066100999991973010615004+46817+006950FM-12+048999999V0200301N00251004201CN0030001N9+00001-00201103521ADDAY121999GF108991081061004501999999MA1999999097361MD1710011+9999MW1101
0096066100999991973010618004+46817+006950FM-12+048999999V0200401N00201004201CN0030001N9-00101-00201103601ADDAA199000091AY121999GF108991081061004501999999KA1999M+00001MA1999999097441MD1210081+9999MW1101
0072066100999991973010621004+46817+006950FM-12+048999999V0200401N00251004201CN0030001N9-00101-00301103601ADDAY121999GF108991081061004501999999MA1999999097441MD1410001+9999MW1101
0102066100999991973010700004+46817+006950FM-12+048999999V0200401N00151004201CN0030001N9-00101-00201103601ADDAA106000091AY121999GF108991081061004501999999MA1999999097441MD1410001+9999MW1101EQDQ01  00003PRCP99
0072066100999991973010703004+46817+006950FM-12+048999999V0201001N00151004201CN0030001N9-00201-00201103571ADDAY121999GF108991081061004501999999MA1999999097411MD1710031+9999MW1101
0139066100999991973010706004+46817+006950FM-12+048999999V0200801N00151004201CN0050001N9-00201-00301103531ADDAA199000091AJ100009199999999AY121999GF108991081061004501999999IA1139KA1999N-00201MA1999999097371MD1610041+9999MW1101REMSYN01125430 94000
0072066100999991973010709004+46817+006950FM-12+048999999V0200901N00201004201CN0030001N9-00201-00301103651ADDAY121999GF108991081061004501999999MA1999999097491MD1210121+9999MW1101
0102066100999991973010712004+46817+006950FM-12+048999999V0200201N00101004201CN0030001N9-00201-00301103571ADDAA106000091AY121999GF108991081061004501999999MA1999999097411MD1810081+9999MW1101EQDQ01  00003PRCP99
0072066100999991973010715004+46817+006950FM-12+048999999V0200101N00151004201CN0030001N9-00201-00301103551ADDAY121999GF108991081061004501999999MA1999999097411MD1510021+9999MW1101
0096066100999991973010718004+46817+006950FM-12+048999999V0200301N00201004201CN0030001N9-00201-00301103621ADDAA199000091AY121999GF108991081061004501999999KA1999M-00101MA1999999097461MD1210071+9999MW1101
0072066100999991973010721004+46817+006950FM-12+048999999V0209991C00001004201CN0030001N9-00201-00301103681ADDAY121999GF108991081061004501999999MA1999999097471MD1210011+9999MW1101
0102066100999991973010800004+46817+006950FM-12+048999999V0209991C00001004201CN0030001N9-00201-00301103651ADDAA106000091AY121999GF108991081061004501999999MA1999999097441MD1610031+9999MW1101EQDQ01  00003PRCP99
0072066100999991973010803004+46817+006950FM-12+048999999V0201601N00151004201CN0040001N9-00201-00401103641ADDAY121999GF108991081061004501999999MA1999999097431MD1610011+9999MW1101
0139066100999991973010806004+46817+006950FM-12+048999999V0209991C00001004201CN0050001N9-00301-00401103571ADDAA199000091AJ100009199999999AY121999GF108991081061004501999999IA1139KA1999N-00301MA1999999097361MD1710071+9999MW1101REMSYN01125530 94000
0072066100999991973010809004+46817+006950FM-12+048999999V0201401N00151004201CN0040001N9-00301-00401103631ADDAY121999GF108991081061004501999999MA1999999097421MD1210061+9999MW1101
0118066100999991973010812004+46817+006950FM-12+048999999V0200701N00101004201CN0030001N9-00301-00401103531ADDAA106000091AY121999GF108991081061004501999999MA1999999097331MD1810101+9999MW1101EQDQ01+999990APOSP Q02  00003PRCP99
0072066100999991973010815004+46817+006950FM-12+048999999V0200901N00051004201CN0030001N9-00301-00401103441ADDAY121999GF108991081061004501999999MA1999999097231MD1710091+9999MW1101
0096066100999991973010818004+46817+006950FM-12+048999999V0201201N00151004201CN0030001N9-00301-00401103461ADDAA199000091AY121999GF108991081061004501999999KA1999M-00201MA1999999097251MD1210021+9999MW1101
0072066100999991973010821004+46817+006950FM-12+048999999V0200801N00251004201CN0030001N9-00301-00301103461ADDAY121999GF108991081061004501999999MA1999999097251MD1410001+9999MW1101
0102066100999991973010900004+46817+006950FM-12+048999999V0200601N00251004201CN0030001N9-00301-00401103431ADDAA106000091AY121999GF108991081061004501999999MA1999999097221MD1810031+9999MW1101EQDQ01  00003PRCP99
0072066100999991973010903004+46817+006950FM-12+048999999V0200901N00151004201CN0030001N9-00301-00401103401ADDAY121999GF108991081061004501999999MA1999999097191MD1610031+9999MW1101
0139066100999991973010906004+46817+006950FM-12+048999999V0200701N00101004201CN0050001N9-00301-00401103371ADDAA199000091AJ100009199999999AY121999GF108991081061004501999999IA1139KA1999N-00401MA1999999097161MD1710031+9999MW1101REMSYN01125  0 94000
0072066100999991973010909004+46817+006950FM-12+048999999V0200801N00101002101CN0030001N9-00401-00401103401ADDAY121999GF108991081061002501999999MA1999999097191MD1210031+9999MW1101
0102066100999991973010912004+46817+006950FM-12+048999999V0200301N00151002101CN0020001N9-00301-00401103361ADDAA106000091AY121999GF108991081061002501999999MA1999999097151MD1810041+9999MW1101EQDQ01  00003PRCP99
0072066100999991973010915004+46817+006950FM-12+048999999V0200401N00251002101CN0020001N9-00301-00401103251ADDAY121999GF108991081061002501999999MA1999999097041MD1310111+9999MW1101
0096066100999991973010918004+46817+006950FM-12+048999999V0200401N00361002101CN0020001N9-00301-00501103221ADDAA199000091AY121999GF108991081061002501999999KA1999M-00301MA1999999097011MD1710031+9999MW1101
0072066100999991973010921004+46817+006950FM-12+048999999V0200501N00251004201CN0030001N9-00301-00501103111ADDAY121999GF108991081061004501999999MA1999999096961MD1710051+9999MW1101
0102066100999991973011000004+46817+006950FM-12+048999999V0200501N00251004201CN0030001N9-00301-00401103061ADDAA106000091AY121999GF108991081061004501999999MA1999999096911MD1710051+9999MW1101EQDQ01  00003PRCP99
0072066100999991973011003004+46817+006950FM-12+048999999V0200801N00251004201CN0030001N9-00301-00501103021ADDAY121999GF108991081061004501999999MA1999999096871MD1710041+9999MW1101
0139066100999991973011006004+46817+006950FM-12+048999999V0201101N00251004201CN0080001N9-00301-00401102941ADDAA199000091AJ100009199999999AY121999GF108991081061004501999999IA1139KA1999N-00301MA1999999096791MD1710081+9999MW1101REMSYN01125  0 94000
0072066100999991973011009004+46817+006950FM-12+048999999V0209991C00001004201CN0060001N9-00301-00401103021ADDAY121999GF108991081061004501999999MA1999999096871MD1210081+9999MW1101
0096066100999991973011012004+46817+006950FM-12+048999999V0200901N00151004201CN0060001N9-00201-00401102971ADDAA106000091AY121999GF108991081061004501999999MA1999999096861MD1810011+9999EQDQ01  00003PRCP99
0072066100999991973011015004+46817+006950FM-12+048999999V0201001N00201004201CN0060001N9-00201-00401102931ADDAY121999GF107991071051004501999999MA1999999096821MD1710041+9999MW1101
0096066100999991973011018004+46817+006950FM-12+048999999V0201301N00201004201CN0050001N9-00301-00601102991ADDAA199000091AY121999GF108991081061004501999999KA1999M-00101MA1999999096841MD1210021+9999MW1101
0072066100999991973011021004+46817+006950FM-12+048999999V0201401N00251004201CN0050001N9-00301-00601103071ADDAY121999GF108991081061004501999999MA1999999096921MD1210081+9999MW1101
0102066100999991973011100004+46817+006950FM-12+048999999V0201201N00151004201CN0050001N9-00301-00401103051ADDAA106000091AY121999GF108991081061004501999999MA1999999096901MD1810021+9999MW1101EQDQ01  00003PRCP99
0072066100999991973011103004+46817+006950FM-12+048999999V0201301N00101004201CN0050001N9-00301-00301103011ADDAY121999GF108991081061004501999999MA1999999096911MD1310011+9999MW1101
0139066100999991973011106004+46817+006950FM-12+048999999V0201301N00101004201CN0080001N9-00301-00301103041ADDAA199000091AJ100009199999999AY121999GF108991081061004501999999IA1139KA1999N-00401MA1999999096891MD1710021+9999MW1101REMSYN01125  0 94000
0072066100999991973011109004+46817+006950FM-12+048999999V0201101N00151004201CN0030001N9-00301-00401103111ADDAY121999GF108991081061004501999999MA1999999096961MD1210071+9999MW1101
0102066100999991973011112004+46817+006950FM-12+048999999V0209991C00001004201CN0030001N9-00201-00301103221ADDAA106000091AY121999GF107991071051004501999999MA1999999097011MD1010051+9999MW1101EQDQ01  00003PRCP99
0072066100999991973011115004+46817+006950FM-12+048999999V0200401N00151220001CN0030001N9-00201-00301103231ADDAY121999GF104991041061004501001001MA1999999097021MD1310011+9999MW1101
0096066100999991973011118004+46817+006950FM-12+048999999V0200801N00101220001CN0040001N9-00601-00601103331ADDAA199000091AY101999GF100991001001999999001001KA1999M-00101MA1999999097071MD1210051+9999MW1101
0072066100999991973011121004+46817+006950FM-12+048999999V0209991C00001220001CN0040001N9-00601-00701103411ADDAY101999GF100991001001999999001001MA1999999097101MD1210031+9999MW1101
0102066100999991973011200004+46817+006950FM-12+048999999V0202101N00151002101CN0030001N9-00501-00501103411ADDAA106000091AY121999GF108991081061002501999999MA1999999097151MD1110051+9999MW1101EQDQ01  00003PRCP99
0072066100999991973011203004+46817+006950FM-12+048999999V0201901N00151002101CN0025001N9-00501-00501103391ADDAY121999GF108991081061002501999999MA1999999097131MD1710021+9999MW1101
0139066100999991973011206004+46817+006950FM-12+048999999V0201601N00051000301CN0002001N9-00501-00501103341ADDAA199000091AJ100009199999999AY141999GF109991091999999999999999IA1139KA1999N-00701MA1999999097081MD1710051+9999MW1471REMSYN01126230 94002
0102066100999991973011212004+46817+006950FM-12+048999999V0209991C00001000301CN0003001N9-00501-00501103291ADDAA106000091AY141999GF109991091999999999999999MA1999999097031MD1810091+9999MW1491EQDQ01  00003PRCP99
0072066100999991973011215004+46817+006950FM-12+048999999V0209991C00001000301CN0003001N9-00501-00501103151ADDAY141999GF109991091999999999999999MA1999999096961MD1610071+9999MW1451
0096066100999991973011218004+46817+006950FM-12+048999999V0200801N00101000301CN0004001N9-00601-00601103151ADDAA199000091AY141999GF109991091999999999999999KA1999M-00401MA1999999096961MD1410001+9999MW1451
0072066100999991973011221004+46817+006950FM-12+048999999V0202001N00101000601CN0008001N9-00601-00601103151ADDAY141999GF109991091999999999999999MA1999999096921MD1710041+9999MW1451
0102066100999991973011300004+46817+006950FM-12+048999999V0201901N00051000301CN0005001N9-00601-00601103131ADDAA106000091AY141999GF109991091999999999999999MA1999999096901MD1610021+9999MW1471EQDQ01  00003PRCP99
0072066100999991973011303004+46817+006950FM-12+048999999V0201801N00201000601CN0009001N9-00601-00601103101ADDAY141999GF109991091999999999999999MA1999999096871MD1610031+9999MW1431
0091066100999991973011306004+46817+006950FM-12+048999999V0201201N00051001201CN0018001N9-00601-00601102901ADDAY141999GF108991081061001501999999MA1999999096671MD1710161+9999MW1101EQDQ01+999990APOSP 
0072066100999991973011309004+46817+006950FM-12+048999999V0201001N001019999999N0006001N9-00601-00601102971ADDAY141999GF199999091999999999999999MA1999999096741MD1310031+9999MW1451
0102066100999991973011312004+46817+006950FM-12+048999999V0209991C00001000301CN0005001N9-00501-00501102731ADDAA106000091AY141999GF109991091999999999999999MA1999999096541MD1810201+9999MW1451EQDQ01  00003PRCP99
0072066100999991973011315004+46817+006950FM-12+048999999V0209991C00001000601CN0008001N9-00501-00501102671ADDAY141999GF109991091999999999999999MA1999999096481MD1610061+9999MW1451
0096066100999991973011318004+46817+006950FM-12+048999999V0209991C00001002101CN0015001N9-00401-00401102741ADDAA199000091AY141999GF108991081061002501999999KA1999M-00401MA1999999096551MD1210071+9999MW1101
0072066100999991973011321004+46817+006950FM-12+048999999V0201901N00101000301CN0005001N9-00401-00401102741ADDAY141999GF109991091999999999999999MA1999999096591MD1210041+9999MW1451
0102066100999991973011400004+46817+006950FM-12+048999999V0202001N00151000601CN0006001N9-00401-00401102801ADDAA106000091AY141999GF109991091999999999999999MA1999999096651MD1210061+9999MW1451EQDQ01  00003PRCP99
0072066100999991973011403004+46817+006950FM-12+048999999V0201901N00101000601CN0006001N9-00401-00401102781ADDAY141999GF109991091999999999999999MA1999999096631MD1710021+9999MW1451
0139066100999991973011406004+46817+006950FM-12+048999999V0201701N00051000601CN0008001N9-00401-00401102701ADDAA199000091AJ100009199999999AY141999GF109991091999999999999999IA1139KA1999N-00401MA1999999096551MD1710081+9999MW1451REMSYN01125830 94000
0072066100999991973011409004+46817+006950FM-12+048999999V0209991C00001036001CN0018001N9-00301-00301102701ADDAY141999GF107991021051004501041021MA1999999096551MD1410001+9999MW1101
0102066100999991973011412004+46817+006950FM-12+048999999V0209991C00001002101CN0020001N9-00201-00201102591ADDAA106000091AY141999GF108991081061002501999999MA1999999096481MD1710071+9999MW1101EQDQ01  00003PRCP99
0072066100999991973011415004+46817+006950FM-12+048999999V0209991C00001004201CN0020001N9+00101+00101102301ADDAY121999GF108991081061004501999999MA1999999096241MD1710241+9999MW1101
0096066100999991973011418004+46817+006950FM-12+048999999V0203501N00101007501CN0020001N9+00001-00101102151ADDAA199000091AY121999GF107991071051008001999999KA1999M+00101MA1999999096041MD1710201+9999MW1101
0072066100999991973011421004+46817+006950FM-12+048999999V0209991C00001007501CN0020001N9-00101-00101101881ADDAY121999GF108991081051008001999999MA1999999095841MD1710201+9999MW1101
0102066100999991973011500004+46817+006950FM-12+048999999V0203301N00051007501CN0020001N9-00201-00201101731ADDAA106000091AY121999GF108991081051008001999999MA1999999095651MD1710191+9999MW1101EQDQ01  00003PRCP99
0072066100999991973011503004+46817+006950FM-12+048999999V0209991C00001000601CN0008001N9-00201-00201101491ADDAY141999GF109991091999999999999999MA1999999095411MD1710241+9999MW1451
0139066100999991973011506004+46817+006950FM-12+048999999V0201001N00151004201CN0015001N9-00201-00201101281ADDAA199000091AJ100009199999999AY171999GF108991081061004501999999IA1139KA1999N-00301MA1999999095241MD1710171+9999MW1101REMSYN01125730 94000
0072066100999991973011509004+46817+006950FM-12+048999999V0202801N00101036001CN0008001N9-00101-00101101321ADDAY161999GF108991081001999999071999MA1999999095281MD1210041+9999MW1461
0102066100999991973011512004+46817+006950FM-12+048999999V0203501N001019999999N0012001N9+00101+99999101181ADDAA106001091AY161999GF108991031999999999061021MA1999999095191MW1611REMSYN00501809EQDQ01  00103PRCP99
0072066100999991973011515004+46817+006950FM-12+048999999V0209991C00001000301CN0003001N9+00101+00101101071ADDAY161999GF109991091999999999999999MA1999999095081MD1610111+9999MW1631
0096066100999991973011518004+46817+006950FM-12+048999999V0200901N00201000301CN0002001N9+00101+00101101061ADDAA199070091AY161999GF109991091999999999999999KA1999M+00201MA1999999095071MD1610011+9999MW1631
0072066100999991973011521004+46817+006950FM-12+048999999V0201801N00101000301CN0003001N9+00001+00001101081ADDAY161999GF109991091999999999999999MA1999999095091MD1110021+9999MW1611
0104066100999991973011600004+46817+006950FM-12+048999999V0209991C00001000601CN0009001N9+00101+00101101031ADDAY161999GF109991091999999999999999KA1999N+99999MA1999999095041MD1810051+9999MW1451EQDQ01 -04202ATMN  
0072066100999991973011603004+46817+006950FM-12+048999999V0209991C00001036001CN0150001N9+00101+00101101011ADDAY141999GF108991041071008001021999MA1999999095021MD1710021+9999MW1601
0139066100999991973011606004+46817+006950FM-12+048999999V0202001N00151036001CN0100001N9+00101+00101101031ADDAA199002091AJ100009199999999AY141999GF108991041051008001071999IA1109KA1999N+00001MA1999999095041MD1210021+9999MW1601REMSYN01125420 94000
0072066100999991973011609004+46817+006950FM-12+048999999V0201901N00101004201CN0100001N9+00101+00101101161ADDAY161999GF107991051051004501071999MA1999999095171MD1210131+9999MW1021
0102066100999991973011612004+46817+006950FM-12+048999999V0201901N00251009001CN0200001N9+00401+00301101041ADDAA106999929AY121999GF106991061081004501999999MA1999999095141MD1810031+9999MW1011EQDQ01  99993PRCP99
0072066100999991973011615004+46817+006950FM-12+048999999V0209991C00001220001CN0200001N9+00501+00301100901ADDAY111999GF103991031051004501001001MA1999999095001MD1710141+9999MW1011
0096066100999991973011618004+46817+006950FM-12+048999999V0200701N00101220001CN0150001N9+00001+00001100871ADDAA199022091AY101999GF102991021051004501001001KA1999M+00101MA1999999094941MD1710061+9999MW1011
0072066100999991973011621004+46817+006950FM-12+048999999V0200401N00151002101CN0080001N9+00001+00001100741ADDAY111999GF108991081061002501999999MA1999999094811MD1710131+9999MW1101
0102066100999991973011700004+46817+006950FM-12+048999999V0201601N00151002101CN0030001N9-00101-00101100731ADDAA106000091AY121999GF108991081061002501999999MA1999999094761MD1710051+9999MW1101EQDQ01  00003PRCP99
0072066100999991973011703004+46817+006950FM-12+048999999V0200801N00051001201CN0030001N9-00101-00101100571ADDAY121999GF108991081061001501999999MA1999999094601MD1710161+9999MW1101
0139066100999991973011706004+46817+006950FM-12+048999999V0200801N00151004201CN0020001N9-00101-00101100511ADDAA199000091AJ100009199999999AY121999GF108991081061004501999999IA1139KA1999N-00201MA1999999094541MD1710061+9999MW1101REMSYN01125  0 94033
0102066100999991973011712004+46817+006950FM-12+048999999V0200301N00251001201CN0015001N9+00001+00001100471ADDAA106999929AY181999GF108991081061001501999999MA1999999094541MD1810101+9999MW1101EQDQ01  99993PRCP99
0072066100999991973011715004+46817+006950FM-12+048999999V0200401N00151036001CN9999999N9+00101+00101100441ADDAY171999GF108991041061001501021999MA1999999094511MD1310031+9999MW1011
0096066100999991973011718004+46817+006950FM-12+048999999V0200201N00101001201CN0015001N9+00101+00001100541ADDAA199999999AY121999GF108991051061001501021999KA1999M+00201MA1999999094611MD1210101+9999MW1101
0086066100999991973011721004+46817+006950FM-12+048999999V0209991C00001036001CN0023001N9+00001+00001100661ADDAY121999GF107991041061001501041999MA1999999094731MD1010001+9999MW1101REMSYN00512***
0102066100999991973011800004+46817+006950FM-12+048999999V0209991C00001002101CN0020001N9+00001+00001100831ADDAA106000091AY121999GF108991081061002501999999MA1999999094901MD1210171+9999MW1101EQDQ01  00003PRCP99
0072066100999991973011803004+46817+006950FM-12+048999999V0209991C00001001201CN0020001N9+00001+00001100901ADDAY121999GF108991081061001501999999MA1999999094971MD1110071+9999MW1101
0137066100999991973011806004+46817+006950FM-12+048999999V0201301N00051036001CN0015001N9+99999+99999999999ADDAA199000091AJ100009199999999GF108991011011000251051001IA1139KA1999N+00001MA1999999095061MD1010001+9999MW1101REMSYN01750209 25430 94000
0072066100999991973011809004+46817+006950FM-12+048999999V0201401N00151002101CN0012001N9+00001+00001101301ADDAY121999GF108991081061002501999999MA1999999095261MD1210201+9999MW1101
0102066100999991973011812004+46817+006950FM-12+048999999V0201801N00051002101CN0015001N9+00001+00001101391ADDAA106000091AY121999GF108991081061002501999999MA1999999095401MD1110141+9999MW1101EQDQ01  00003PRCP99
0072066100999991973011815004+46817+006950FM-12+048999999V0209991C00001000601CN0009001N9+00101+00101101401ADDAY171999GF109991091999999999999999MA1999999095411MD1110011+9999MW1711
0096066100999991973011818004+46817+006950FM-12+048999999V0209991C00001000301CN0005001N9+00001+00001101521ADDAA199002091AY171999GF109991091999999999999999KA1999M+00101MA1999999095531MD1210121+9999MW1731
0072066100999991973011821004+46817+006950FM-12+048999999V0209991C00001000601CN0009001N9+00001+00001101661ADDAY171999GF109991091999999999999999MA1999999095671MD1210141+9999MW1711
0103066100999991973011912004+46817+006950FM-12+048999999V0200401N00101000301CN0004001N9+00101+00101101531ADDAA199000091AY141999GF109991091999999999999999MA1999999095541MD1810081+9999MW1431REMSYN01169554 700//
0086066100999991973011915004+46817+006950FM-12+048999999V0200401N00101000601CN0010001N9+00201+00201101391ADDAY141999GF108991081061000751999999MA1999999095441MD1710101+9999MW1101REMSYN00569544
0095066100999991973011918004+46817+006950FM-12+048999999V0209991C00001001201CN0020001N9+00101+00101101381ADDAY111999GF108991081061001501999999MA1999999095391MD1610051+9999MW1101REMSYN01469539 --794 02
0086066100999991973011921004+46817+006950FM-12+048999999V0209991C00001001201CN0018001N9+00101+00101101331ADDAY121999GF108991081061001501999999MA1999999095341MD1710051+9999MW1101REMSYN00569534
0102066100999991973012000004+46817+006950FM-12+048999999V0209991C00001001201CN0015001N9+00101+00101101241ADDAA106000091AY121999GF108991081061001501999999MA1999999095251MD1810091+9999MW1101EQDQ01  00003PRCP99
0072066100999991973012003004+46817+006950FM-12+048999999V0209991C00001002101CN0020001N9+00101+00101101141ADDAY121999GF108991081061002501999999MA1999999095151MD1710101+9999MW1101
0139066100999991973012006004+46817+006950FM-12+048999999V0209991C00001002101CN0012001N9+00001+00001101051ADDAA199000091AJ100009199999999AY121999GF108991081061002501999999IA1109KA1999N+00001MA1999999095061MD1710091+9999MW1101REMSYN01125320 94000
0072066100999991973012009004+46817+006950FM-12+048999999V0201801N00051036001CN0020001N9+00101+00101101071ADDAY121999GF108991021051008001051011MA1999999095081MD1210021+9999MW1101
0102066100999991973012012004+46817+006950FM-12+048999999V0209991C00001036001CN0030001N9+00301+00201101031ADDAA106000091AY121999GF108991081001999999071999MA1999999095081MD1410001+9999MW1101EQDQ01  00003PRCP99
0072066100999991973012015004+46817+006950FM-12+048999999V0202301N00461007501CN0080001N9+00501+00201101071ADDAY121999GF108991051051008001071999MA1999999095171MD1310091+9999MW1151
0096066100999991973012018004+46817+006950FM-12+048999999V0202101N00411036001CN0100001N9+00401+00301101311ADDAA199999929AY161999GF105991051001999999071001KA1999M+00501MA1999999095361MD1110191+9999MW1011
0072066100999991973012021004+46817+006950FM-12+048999999V0201801N00151036001CN0120001N9+00201+00201101401ADDAY121999GF105991051001999999071001MA1999999095411MD1210051+9999MW1021
0102066100999991973012100004+46817+006950FM-12+048999999V0209991C00001220001CN0150001N9+99999+99999101361ADDAA106000091AY111999GF104991031999999999001091MA1999999095371MW1021REMSYN00500704EQDQ01  00003PRCP99
0072066100999991973012103004+46817+006950FM-12+048999999V0209991C00001036001CN0090001N9-00101-00101101411ADDAY121999GF106991051001999999041011MA1999999095371MD1410001+9999MW1101
0139066100999991973012106004+46817+006950FM-12+048999999V0209991C00001036001CN0090001N9-00101-00101101321ADDAA199000091AJ100009199999999AY121999GF108991081001999999071999IA1139KA1999N-00201MA1999999095281MD1710091+9999MW1101REMSYN01125730 94000
0072066100999991973012109004+46817+006950FM-12+048999999V0209991C00001036001CN0090001N9-00101-00101101341ADDAY121999GF108991031051012501071999MA1999999095301MD1210021+9999MW1101
0102066100999991973012112004+46817+006950FM-12+048999999V0202301N00151036001CN0090001N9+00201+00201101271ADDAA106000091AY121999GF107991031051012501071999MA1999999095321MD1310021+9999MW1101EQDQ01  00003PRCP99
0072066100999991973012115004+46817+006950FM-12+048999999V0202301N00251001201CN0080001N9+00101+00101101421ADDAY171999GF108991081071001501999999MA1999999095431MD1210111+9999MW1611
0096066100999991973012118004+46817+006950FM-12+048999999V0200801N00151036001CN0120001N9+00001+00001101411ADDAA199003091AY171999GF108991021011001501051001KA1999M+00301MA1999999095421MD1610011+9999MW1101
0072066100999991973012121004+46817+006950FM-12+048999999V0209991C00001015001CN0180001N9+00001+00001101521ADDAY111999GF105991051001017501071999MA1999999095531MD1310111+9999MW1101
0102066100999991973012200004+46817+006950FM-12+048999999V0200401N00051036001CN0060001N9-00101-00101101661ADDAA106000091AY121999GF108991081001999999071999MA1999999095621MD1210091+9999MW1031EQDQ01  00003PRCP99
0139066100999991973012206004+46817+006950FM-12+048999999V0209991C00001036001CN0060001N9+00001+00001101841ADDAA199000091AJ100009199999999AY121999GF108991081001999999011999IA1139KA1999N-00101MA1999999095801MD1210131+9999MW1101REMSYN01125530 94002
0072066100999991973012209004+46817+006950FM-12+048999999V0200301N00251036001CN0009001N9+00001+00001101961ADDAY141999GF108991041051012501011999MA1999999095971MD1210171+9999MW1421
0102066100999991973012212004+46817+006950FM-12+048999999V0200401N00301036001CN0200001N9+00201+00201102121ADDAA106000091AY141999GF107991011051012501021999MA1999999096111MD1210141+9999MW1011EQDQ01  00003PRCP99
0072066100999991973012215004+46817+006950FM-12+048999999V0200401N00301036001CN0250001N9+00301+00301102331ADDAY121999GF107991031051012501011999MA1999999096321MD1210211+9999MW1021
0096066100999991973012218004+46817+006950FM-12+048999999V0200701N00301220001CN0200001N9+00101+00001102621ADDAA199000091AY121999GF103991031051012501001001KA1999M+00301MA1999999096561MD1210241+9999MW1011
0072066100999991973012221004+46817+006950FM-12+048999999V0200401N00361012001CN0200001N9+00201-00101102851ADDAY101999GF105991051051012501999999MA1999999096791MD1210231+9999MW1031
0102066100999991973012300004+46817+006950FM-12+048999999V0200501N00251220001CN0060001N9+00001+00001102991ADDAA106000091AY111999GF101991011051008001001001MA1999999096931MD1210141+9999MW1101EQDQ01  00003PRCP99
0072066100999991973012303004+46817+006950FM-12+048999999V0200101N00251220001CN0080001N9-00101-00101103241ADDAY101999GF101991011051008001001001MA1999999097081MD1210151+9999MW1101
0139066100999991973012306004+46817+006950FM-12+048999999V0200401N00251007501CN0100001N9-00101-00101103311ADDAA199000091AJ100009199999999AY111999GF108991081061008001999999IA1139KA1999N-00201MA1999999097151MD1210071+9999MW1101REMSYN01125  0 94000
0072066100999991973012309004+46817+006950FM-12+048999999V0200401N00151012001CN0090001N9-00101-00101103471ADDAY111999GF107991051051012501041021MA1999999097311MD1210161+9999MW1101
0102066100999991973012312004+46817+006950FM-12+048999999V0209991C00001036001CN0080001N9+00301+00301103381ADDAA106000091AY121999GF106991021051012501041021MA1999999097311MD1010001+9999MW1101EQDQ01  00003PRCP99
0072066100999991973012315004+46817+006950FM-12+048999999V0200401N00151036001CN0060001N9+00301+00301103321ADDAY121999GF106991011051012501031999MA1999999097251MD1510061+9999MW1101
0096066100999991973012318004+46817+006950FM-12+048999999V0200501N00151004201CN0060001N9+00101-00101103441ADDAA199000091AY121999GF108991081061004501999999KA1999M+00401MA1999999097321MD1210071+9999MW1101
0072066100999991973012321004+46817+006950FM-12+048999999V0209991C00001004201CN0050001N9+00101+00001103461ADDAY121999GF108991081061004501999999MA1999999097341MD1010021+9999MW1101
0102066100999991973012400004+46817+006950FM-12+048999999V0200401N00151012001CN0050001N9+00001+00001103391ADDAA106000091AY121999GF108991081051012501999999MA1999999097271MD1710071+9999MW1101EQDQ01  00003PRCP99
0072066100999991973012403004+46817+006950FM-12+048999999V0200401N00201002101CN0020001N9-00101-00101103371ADDAY121999GF108991081061002501999999MA1999999097211MD1710061+9999MW1101
0139066100999991973012406004+46817+006950FM-12+048999999V0200501N00201002101CN0030001N9-00101-00101103351ADDAA199000091AJ100009199999999AY121999GF108991081061002501999999IA1139KA1999N-00101MA1999999097191MD1610021+9999MW1101REMSYN01125530 94040
0072066100999991973012409004+46817+006950FM-12+048999999V0200401N00251002101CN0030001N9-00101-00201103441ADDAY121999GF108991081061002501999999MA1999999097281MD1110091+9999MW1101
0102066100999991973012412004+46817+006950FM-12+048999999V0200201N00301002101CN0040001N9-00101-00201103391ADDAA106000091AY121999GF108991081061002501999999MA1999999097231MD1710051+9999MW1101EQDQ01  00003PRCP99
0072066100999991973012415004+46817+006950FM-12+048999999V0200401N00301220001CN0060001N9+00101+00001103171ADDAY111999GF100991001001999999001001MA1999999097051MD1710181+9999MW1101
0096066100999991973012418004+46817+006950FM-12+048999999V0200401N00361220001CN0060001N9-00101-00301103191ADDAA199000091AY101999GF100991001001999999001001KA1999M+00101MA1999999097031MD1510021+9999MW1101
0072066100999991973012421004+46817+006950FM-12+048999999V0209991C00001220001CN0060001N9-00201-00301103221ADDAY101999GF100991001001999999001001MA1999999097011MD1810021+9999MW1101
0102066100999991973012500004+46817+006950FM-12+048999999V0200301N00101220001CN0060001N9-00301-00401103101ADDAA106000091AY101999GF100991001001999999001001MA1999999096951MD1810061+9999MW1101EQDQ01  00003PRCP99
0072066100999991973012503004+46817+006950FM-12+048999999V0200501N00361004201CN0060001N9-00301-00401103051ADDAY101999GF108991081061004501999999MA1999999096901MD1710051+9999MW1101
0139066100999991973012506004+46817+006950FM-12+048999999V0200401N00361004201CN0080001N9-00401-00501103031ADDAA199000091AJ100009199999999AY121999GF108991081061004501999999IA1139KA1999N-00401MA1999999096881MD1310021+9999MW1101REMSYN01125930 94034
0091066100999991973012509004+46817+006950FM-12+048999999V0200501N00201002101CN0050001N9-00401-00501103061ADDAY121999GF108991081061002501999999MA1999999096871MD1010001+9999MW1101EQDQ01+999990APOSP 
0132066100999991973012512004+46817+006950FM-12+048999999V0209991V00051002101CN0050001N9-00301-00401103081ADDAA106000091AY121999GF108991081061002501999999MA1999999096911MD1110021+9999MW1101REMSYN00593***EQDQ01+999990APOSP Q02  00003PRCP99
0072066100999991973012515004+46817+006950FM-12+048999999V0200401N00151002101CN0050001N9-00301-00301103031ADDAY121999GF108991081061002501999999MA1999999096881MD1710051+9999MW1101
0096066100999991973012518004+46817+006950FM-12+048999999V0209991C00001002101CN0040001N9-00301-00501103071ADDAA199000091AY121999GF108991081061002501999999KA1999M-00301MA1999999096921MD1310041+9999MW1101
0072066100999991973012521004+46817+006950FM-12+048999999V0201801N00101002101CN0040001N9-00401-00501103141ADDAY121999GF108991081061002501999999MA1999999096951MD1210031+9999MW1101
0102066100999991973012600004+46817+006950FM-12+048999999V0209991C00001002101CN0030001N9-00401-00401103071ADDAA106000091AY121999GF108991081061002501999999MA1999999096921MD1710031+9999MW1101EQDQ01  00003PRCP99
0072066100999991973012603004+46817+006950FM-12+048999999V0200501N00101002101CN0030001N9-00401-00401103041ADDAY121999GF108991081061002501999999MA1999999096891MD1710031+9999MW1101
0139066100999991973012606004+46817+006950FM-12+048999999V0200801N00101002101CN0030001N9-00401-00401103001ADDAA199000091AJ100009199999999AY121999GF108991081061002501999999IA1139KA1999N-00401MA1999999096851MD1810041+9999MW1101REMSYN01126030 94000
0072066100999991973012609004+46817+006950FM-12+048999999V0202301N00251001201CN0025001N9-00401-00401102951ADDAY121999GF108991081061001501999999MA1999999096801MD1810051+9999MW1101
0102066100999991973012612004+46817+006950FM-12+048999999V0209991C00001001201CN0030001N9-00201-00201102831ADDAA106000091AY121999GF105991051061001501001021MA1999999096721MD1710081+9999MW1101EQDQ01  00003PRCP99
0096066100999991973012618004+46817+006950FM-12+048999999V0209991C00001220001CN0030001N9-00301-00301102631ADDAA199000091AY101999GF100991001001999999001001KA1999M-00101MA1999999096481MD1710121+9999MW1101
0072066100999991973012621004+46817+006950FM-12+048999999V0201801N00101220001CN0030001N9-00301-00301102651ADDAY101999GF100991001001999999001001MA1999999096501MD1310021+9999MW1101
0102066100999991973012700004+46817+006950FM-12+048999999V0201701N00051036001CN0030001N9-00201-00201102501ADDAA106000091AY111999GF108991081001999999011999MA1999999096351MD1710151+9999MW1101EQDQ01  00003PRCP99
0072066100999991973012703004+46817+006950FM-12+048999999V0202101N00301036001CN0060001N9-00201-00201102231ADDAY111999GF108991081001999999011999MA1999999096081MD1710271+9999MW1101
0139066100999991973012706004+46817+006950FM-12+048999999V0202101N00561004201CN0050001N9+00101+00001101841ADDAA199000291AJ100019199999999AY171999GF108991081071004501999999IA1139KA1999N-00401MA1999999095851MD1710231+9999MW1711REMSYN01125931 94040
0072066100999991973012709004+46817+006950FM-12+048999999V0202001N00561001201CN0015001N9+00101+00001101651ADDAY171999GF108991081061001501999999MA1999999095661MD1710191+9999MW1711
0102066100999991973012712004+46817+006950FM-12+048999999V0202101N00671002101CN0030001N9+00101+00101101341ADDAA106003091AY171999GF108991081061002501999999MA1999999095351MD1710311+9999MW1731EQDQ01  00303PRCP99
0072066100999991973012715004+46817+006950FM-12+048999999V0202101N00511036001CN0120001N9+00301+00301101191ADDAY161999GF107991031071004501021999MA1999999095241MD1610111+9999MW1601
0096066100999991973012718004+46817+006950FM-12+048999999V0202001N00361004201CN0150001N9+00201+00201101231ADDAA199005091AY161999GF108991051051004501071999KA1999M+00301MA1999999095281MD1310041+9999MW1031
0072066100999991973012721004+46817+006950FM-12+048999999V0201801N00251004201CN0120001N9+00201+00201101271ADDAY121999GF108991061071004501071999MA1999999095281MD1410001+9999MW1021
0102066100999991973012800004+46817+006950FM-12+048999999V0201901N00301036001CN0120001N9+00201+00101101201ADDAA106999929AY161999GF108991011071004501071999MA1999999095251MD1310031+9999MW1101EQDQ01  99993PRCP99
0072066100999991973012803004+46817+006950FM-12+048999999V0201901N00251004201CN0250001N9+00201+00101101291ADDAY161999GF108991061071004501071999MA1999999095301MD1310051+9999MW1101
0139066100999991973012806004+46817+006950FM-12+048999999V0203001N00151220001CN0280001N9+00101+00101101471ADDAA199999929AJ100009199999999AY111999GF102991021001012501071001IA1139KA1999N+00101MA1999999095481MD1210181+9999MW1101REMSYN01125130 94000
0072066100999991973012809004+46817+006950FM-12+048999999V0202701N00151007501CN0180001N9+00201+00001101821ADDAY111999GF107991051051008001071999MA1999999095831MD1210351+9999MW1101
0102066100999991973012812004+46817+006950FM-12+048999999V0209991C00001036001CN0300001N9+00401-00101102031ADDAA106000091AY121999GF105991031081008001041001MA1999999096021MD1210191+9999MW1151EQDQ01  00003PRCP99
0072066100999991973012815004+46817+006950FM-12+048999999V0209991C00001036001CN0300001N9+00401-00101102201ADDAY121999GF105991031081008001041001MA1999999096191MD1210171+9999MW1151
0096066100999991973012818004+46817+006950FM-12+048999999V0209991C00001220001CN0200001N9+00201-00301102481ADDAA199000091AY121999GF104991041051008001999999KA1999M+00501MA1999999096421MD1210231+9999MW1011
0072066100999991973012821004+46817+006950FM-12+048999999V0202201N00201007501CN0200001N9+00001-00301102641ADDAY121999GF107991071071008001999999MA1999999096581MD1110161+9999MW1031
0132066100999991973012900004+46817+006950FM-12+048999999V0201801N00151220001CN0150001N9-00201-00401102661ADDAA106000091AY111999GF100991001001999999001001MA1999999096531MD1710031+9999MW1011REMSYN00555***EQDQ01+999990APOSP Q02  00003PRCP99
0139066100999991973012906004+46817+006950FM-12+048999999V0201801N00201220001CN0200001N9-00301-00501102861ADDAA199000091AJ100009199999999AY101999GF101991011001999999041001IA1139KA1999N-00401MA1999999096711MD1210041+9999MW1031REMSYN01125  0 94024
0072066100999991973012909004+46817+006950FM-12+048999999V0202101N00151036001CN0300001N9-00201-00301102891ADDAY101999GF106991051001999999071011MA1999999096741MD1110031+9999MW1031
0102066100999991973012912004+46817+006950FM-12+048999999V0209999999999220001CN0400001N9+00301-00301102621ADDAA106000091AY121999GF105991041001999999071011MA1999999096611MD1710131+9999MW1021EQDQ01  00003PRCP99
0072066100999991973012915004+46817+006950FM-12+048999999V0209991C00001036001CN0250001N9+00601-00101102501ADDAY121999GF106991021051008001041011MA1999999096541MD1510071+9999MW1021
0096066100999991973012918004+46817+006950FM-12+048999999V0201101N00051036001CN0150001N9+00201+00001102581ADDAA199000091AY121999GF108991081001999999071999KA1999M+00601MA1999999096571MD1210031+9999MW1031
0072066100999991973012921004+46817+006950FM-12+048999999V0201801N00101036001CN0120001N9+00201+00001102561ADDAY121999GF107991071001999999071999MA1999999096551MD1810021+9999MW1021
0102066100999991973013000004+46817+006950FM-12+048999999V0209991C00001220001CN0150001N9+00201+00001102561ADDAA106000091AY111999GF103991031001999999041001MA1999999096501MD1710051+9999MW1011EQDQ01  00003PRCP99
0072066100999991973013003004+46817+006950FM-12+048999999V0209991C00001220001CN0150001N9-00101-00301102511ADDAY101999GF100991001001999999001001MA1999999096401MD1710101+9999MW1011
0139066100999991973013006004+46817+006950FM-12+048999999V0209991C00001036001CN0200001N9+00001-00201102391ADDAA199000091AJ100009199999999AY101999GF108991081001999999071999IA1139KA1999N-00201MA1999999096331MD1710071+9999MW1031REMSYN01125730 94052
0091066100999991973013009004+46817+006950FM-12+048999999V0209991C00001036001CN0170001N9+00101+00001102371ADDAY121999GF108991081001999999071999MA1999999096331MD1710021+9999MW1021EQDQ01+999990APOSP 
0102066100999991973013012004+46817+006950FM-12+048999999V0209991C00001220001CN0150001N9+00601+00101102131ADDAA106000091AY111999GF102991011051004501041011MA1999999096171MD1710141+9999MW1011EQDQ01  00003PRCP99
0088066100999991973013015004+46817+006950FM-12+048999999V0200901N00051999999CN0120001N9+00601+00201102061ADDAY111999GA1051+999999039GF107991021051008001071011MA1999999096101MD1610071+9999MW1031
0096066100999991973013018004+46817+006950FM-12+048999999V0202101N00101007501CN0080001N9+00401+00201102101ADDAA199000091AY121999GF108991081051008001999999KA1999M+00601MA1999999096091MD1710011+9999MW1101
0072066100999991973013021004+46817+006950FM-12+048999999V0201901N00201007501CN0080001N9+00401+00101102111ADDAY121999GF108991081051008001999999MA1999999096101MD1010011+9999MW1101
0122066100999991973013112004+46817+006950FM-12+048999999V0202001N00201002101CN0060001N9+00301+00201101561ADDAA106003091AY121999GF108991081071002501999999MA1999999095611MD1710041+9999MW1631REMSYN01169561 703//EQDQ01  00303PRCP99
0086066100999991973013115004+46817+006950FM-12+048999999V0202001N00301036001CN0120001N9+00301+00201101541ADDAY161999GF108991041071002501021999MA1999999095591MD1510021+9999MW1611REMSYN00569559
0116066100999991973013118004+46817+006950FM-12+048999999V0202001N00301004201CN0100001N9+00201+00201101801ADDAA199004091AY161999GF108991051071004501021999KA1999M+00301MA1999999095741MD1210151+9999MW1611REMSYN01169574 70403
0086066100999991973013121004+46817+006950FM-12+048999999V0201801N00151004201CN0020001N9+00101+00101101781ADDAY171999GF108991081071004501999999MA1999999095791MD1110051+9999MW1731REMSYN00569579
0102066100999991973020100004+46817+006950FM-12+048999999V0209991C00001004201CN0005001N9+00001+00001101761ADDAA106001091AY171999GF108991081071004501999999MA1999999095721MD1710071+9999MW1711EQDQ01  00103PRCP99
0072066100999991973020103004+46817+006950FM-12+048999999V0200401N00151000151CN0001001N9+00001+00001101661ADDAY171999GF109991091999999999999999MA1999999095621MD1710101+9999MW1451
0139066100999991973020106004+46817+006950FM-12+048999999V0200301N00201000301CN0005001N9+00001+00001101611ADDAA199001091AJ100019199999999AY141999GF109991091999999999999999IA1209KA1999N-00101MA1999999095571MD1710051+9999MW1781REMSYN01125171 94000
0072066100999991973020109004+46817+006950FM-12+048999999V0200401N00251012001CN0050001N9+00001+00001101601ADDAY121999GF108991081051012501999999MA1999999095611MD1110041+9999MW1101
0156066100999991973020112004+46817+006950FM-12+048999999V0200301N00671004201CN0050001N9+00201+00001101591ADDAA106000091AY121999GF107991071051004501999999KA1999M+99999MA1999999095641MD1210031+9999MW1101UA1M999999999UG1139999999EQDQ01  00003PRCP99Q02 -04802ATMX  
0072066100999991973020115004+46817+006950FM-12+048999999V0200501N00461004201CN0050001N9+00201+00001101641ADDAY121999GF108991081051004501999999MA1999999095691MD1210051+9999MW1101
0096066100999991973020118004+46817+006950FM-12+048999999V0200401N00461004201CN0050001N9+00201+00001101871ADDAA199000091AY121999GF108991081051004501999999KA1999M+00201MA1999999095881MD1210191+9999MW1101
0072066100999991973020121004+46817+006950FM-12+048999999V0200401N00411004201CN0050001N9+00101+00001102091ADDAY121999GF108991081051004501999999MA1999999096031MD1210091+9999MW1101
0072066100999991973020203004+46817+006950FM-12+048999999V0200401N00301007501CN0060001N9+00101+00001102141ADDAY171999GF108991081071008001999999MA1999999096081MD1110011+9999MW1711
0139066100999991973020206004+46817+006950FM-12+048999999V0200501N00361007501CN0050001N9+00101+00001102201ADDAA199999929AJ100009199999999AY171999GF108991081051008001999999IA1189KA1999N+00001MA1999999096141MD1310061+9999MW1101REMSYN01125150 94000
0072066100999991973020209004+46817+006950FM-12+048999999V0200401N00461007501CN0040001N9+00101+00001102331ADDAY121999GF108991081051008001999999MA1999999096271MD1210131+9999MW1711
0102066100999991973020212004+46817+006950FM-12+048999999V0200301N00821007501CN0050001N9+00201+00001102351ADDAA106999929AY171999GF107991071051008001999999MA1999999096291MD1110021+9999MW1021EQDQ01  99993PRCP99
0072066100999991973020215004+46817+006950FM-12+048999999V0200401N00921007501CN0060001N9+00201-00101102331ADDAY121999GF106991061051008001001001MA1999999096321MD1210031+9999MW1021
0096066100999991973020218004+46817+006950FM-12+048999999V0200401N00671007501CN0060001N9+00201+00001102511ADDAA199999929AY121999GF108991081051008001999999KA1999M+00301MA1999999096451MD1210131+9999MW1031
0072066100999991973020221004+46817+006950FM-12+048999999V0200401N00611007501CN0060001N9+00101-00101102601ADDAY121999GF108991081051008001999999MA1999999096541MD1210091+9999MW1021
0102066100999991973020300004+46817+006950FM-12+048999999V0200601N00671007501CN0080001N9+00101-00101102631ADDAA106000091AY121999GF108991081051008001999999MA1999999096571MD1210031+9999MW1101EQDQ01  00003PRCP99
0072066100999991973020303004+46817+006950FM-12+048999999V0200501N00611007501CN0080001N9+00101-00101102541ADDAY121999GF108991081051008001999999MA1999999096541MD1710031+9999MW1101
0139066100999991973020306004+46817+006950FM-12+048999999V0200201N00361007501CN9999999N9+00101+00001102641ADDAA199000091AJ100009199999999AY121999GF108991081051008001999999IA1009KA1999N+00101MA1999999096581MD1310041+9999MW1101REMSYN01120000 94020
0072066100999991973020309004+46817+006950FM-12+048999999V0200401N00461007501CN0050001N9+00101-00101102881ADDAY121999GF108991081051008001999999MA1999999096821MD1210241+9999MW1101
0102066100999991973020312004+46817+006950FM-12+048999999V0200401N00511007501CN0060001N9+00201-00101102991ADDAA106000091AY121999GF108991081051008001999999MA1999999096981MD1210161+9999MW1101EQDQ01  00003PRCP99
0072066100999991973020315004+46817+006950FM-12+048999999V0200401N00411004201CN0060001N9+00201+00001103001ADDAY121999GF108991081051004501999999MA1999999096991MD1310011+9999MW1101
0096066100999991973020318004+46817+006950FM-12+048999999V0200401N00361004201CN0050001N9+00201+00101103241ADDAA199000091AY121999GF108991081051004501999999KA1999M+00301MA1999999097121MD1210131+9999MW1101
0072066100999991973020321004+46817+006950FM-12+048999999V0200801N00151004201CN0060001N9+00101+00001103321ADDAY121999GF108991081051004501999999MA1999999097201MD1210081+9999MW1101
0102066100999991973020400004+46817+006950FM-12+048999999V0200501N00251004201CN0060001N9+00101+00101103381ADDAA106000091AY121999GF108991081051004501999999MA1999999097261MD1210061+9999MW1101EQDQ01  00003PRCP99
0072066100999991973020403004+46817+006950FM-12+048999999V0200101N00151004201CN0060001N9+00101+00001103401ADDAY121999GF108991081051004501999999MA1999999097281MD1110021+9999MW1101
0139066100999991973020406004+46817+006950FM-12+048999999V0209991C00001004201CN0060001N9+00101-00201103401ADDAA199000091AJ100009199999999AY121999GF108991081051004501999999IA1009KA1999N+00001MA1999999097281MD1410001+9999MW1101REMSYN01120000 94000
0072066100999991973020409004+46817+006950FM-12+048999999V0209991C00001004201CN0040001N9+00101-00201103491ADDAY121999GF108991081051004501999999MA1999999097371MD1310091+9999MW1101
0102066100999991973020412004+46817+006950FM-12+048999999V0200901N00101004201CN0060001N9+00201-00101103511ADDAA106000091AY121999GF108991081061004501999999MA1999999097391MD1010021+9999MW1101EQDQ01  00003PRCP99
0072066100999991973020415004+46817+006950FM-12+048999999V0200801N00151004201CN0060001N9+00201+00001103461ADDAY121999GF108991081061004501999999MA1999999097341MD1710051+9999MW1101
0096066100999991973020418004+46817+006950FM-12+048999999V0200501N00151004201CN0050001N9+00101-00101103481ADDAA199000091AY121999GF108991081061004501999999KA1999M+00201MA1999999097361MD1210021+9999MW1101
0072066100999991973020421004+46817+006950FM-12+048999999V0201201N00101004201CN0040001N9+00001-00101103491ADDAY121999GF108991081061004501999999MA1999999097371MD1210011+9999MW1101
0102066100999991973020500004+46817+006950FM-12+048999999V0209991C00001004201CN0060001N9+00001-00101103501ADDAA106000091AY121999GF108991081051004501999999MA1999999097381MD1210011+9999MW1101EQDQ01  00003PRCP99
0139066100999991973020506004+46817+006950FM-12+048999999V0201801N00151002101CN0050001N9-00101-00201103471ADDAA199000091AJ100009199999999AY121999GF108991081061002501999999IA1009KA1999N-00101MA1999999097311MD1710061+9999MW1101REMSYN01125100 94000
0072066100999991973020509004+46817+006950FM-12+048999999V0201401N00151002101CN0030001N9-00101-00201103501ADDAY121999GF108991081061002501999999MA1999999097341MD1210031+9999MW1101
0102066100999991973020512004+46817+006950FM-12+048999999V0200901N00101002101CN0040001N9+00201-00101103421ADDAA106000091AY121999GF105991051061002501999999MA1999999097301MD1810041+9999MW1101EQDQ01  00003PRCP99
0072066100999991973020515004+46817+006950FM-12+048999999V0203201N00151220001CN0035001N9+00201+00101103251ADDAY121999GF104991041051002501999999MA1999999097181MD1610121+9999MW1101
0096066100999991973020518004+46817+006950FM-12+048999999V0201801N00051002101CN0020001N9+00001+00001103291ADDAA199000091AY121999GF108991081061002501999999KA1999M+00301MA1999999097171MD1710011+9999MW1101
0072066100999991973020521004+46817+006950FM-12+048999999V0209991C00001000301CN0002001N9-00101-00101103381ADDAY141999GF109991091999999999999999MA1999999097221MD1110051+9999MW1451
0102066100999991973020600004+46817+006950FM-12+048999999V0202401N00101000301CN0004001N9-00201-00201103381ADDAA106000091AY141999GF109991091999999999999999MA1999999097221MD1410001+9999MW1451EQDQ01  00003PRCP99
0072066100999991973020603004+46817+006950FM-12+048999999V0201301N00051000601CN0008001N9-00301-00301103391ADDAY141999GF109991091999999999999999MA1999999097181MD1710041+9999MW1431
0139066100999991973020606004+46817+006950FM-12+048999999V0201801N00101000601CN0008001N9-00301-00301103311ADDAA199000091AJ100009199999999AY141999GF109991091999999999999999IA1089KA1999N-00301MA1999999097101MD1510081+9999MW1451REMSYN01125310 94033
0072066100999991973020609004+46817+006950FM-12+048999999V0200801N00101000601CN0008001N9-00201-00201103331ADDAY141999GF109991091999999999999999MA1999999097121MD1210021+9999MW1451
0102066100999991973020612004+46817+006950FM-12+048999999V0209991C00001001201CN0025001N9-00101-00201103231ADDAA106000091AY121999GF108991081061001501999999MA1999999097071MD1810051+9999MW1101EQDQ01  00003PRCP99
0072066100999991973020615004+46817+006950FM-12+048999999V0203601N00151001201CN0023001N9+00001-00101103061ADDAY121999GF108991081061001501999999MA1999999096951MD1710121+9999MW1101
0096066100999991973020618004+46817+006950FM-12+048999999V0201601N00051001201CN0015001N9-00101-00101103001ADDAA199000091AY121999GF108991081061001501999999KA1999M+00101MA1999999096891MD1710061+9999MW1101
0072066100999991973020621004+46817+006950FM-12+048999999V0209991C00001220001CN0030001N9-00101-00101102951ADDAY111999GF100991001001999999001001MA1999999096841MD1710051+9999MW1101
0102066100999991973020700004+46817+006950FM-12+048999999V0209991C00001004201CN0020001N9-00101-00101102821ADDAA106000091AY111999GF108991081061004501999999MA1999999096711MD1710131+9999MW1101EQDQ01  00003PRCP99
0072066100999991973020703004+46817+006950FM-12+048999999V0202401N00151000301CN0003001N9-00201-00201102701ADDAY141999GF109991091999999999999999MA1999999096551MD1710161+9999MW1451
0139066100999991973020706004+46817+006950FM-12+048999999V0201901N00051000301CN0003001N9-00301-00301102611ADDAA199000091AJ100009199999999AY141999GF109991091999999999999999IA1089KA1999N-00301MA1999999096461MD1710091+9999MW1451REMSYN01125410 94000
0072066100999991973020709004+46817+006950FM-12+048999999V0209991C00001000601CN0010001N9-00201-00201102651ADDAY141999GF105991051061000751001001MA1999999096501MD1310041+9999MW1101
0102066100999991973020712004+46817+006950FM-12+048999999V0200301N00151000601CN0009001N9+00001-00101102581ADDAA106000091AY141999GF109991091999999999999999MA1999999096471MD1610031+9999MW1451EQDQ01  00003PRCP99
0072066100999991973020715004+46817+006950FM-12+048999999V0201001N00101001201CN0020001N9+00301+00101102271ADDAY141999GF106991061061001501999999MA1999999096261MD1810211+9999MW1101
0096066100999991973020718004+46817+006950FM-12+048999999V0209991C00001220001CN0020001N9+00101-00101102271ADDAA199000091AY111999GF101991001001999999001011KA1999M+00301MA1999999096211MD1710051+9999MW1101
0072066100999991973020721004+46817+006950FM-12+048999999V0209991C00001220001CN0030001N9-00101-00101102341ADDAY101999GF100991001001999999001001MA1999999096231MD1010021+9999MW1101
0102066100999991973020800004+46817+006950FM-12+048999999V0209991C00001000301CN0002001N9-00101-00101102301ADDAA106000091AY141999GF109991091999999999999999MA1999999096191MD1710041+9999MW1451EQDQ01  00003PRCP99
0072066100999991973020803004+46817+006950FM-12+048999999V0201901N00101002101CN0020001N9-00201-00201102211ADDAY141999GF108991081061002501999999MA1999999096101MD1710091+9999MW1101
0139066100999991973020806004+46817+006950FM-12+048999999V0200701N00101002101CN0020001N9-00101-00101102191ADDAA199000091AJ100009199999999AY121999GF108991081061002501999999IA1089KA1999N-00301MA1999999096081MD1710021+9999MW1101REMSYN01125510 94015
0072066100999991973020809004+46817+006950FM-12+048999999V0209991C00001004201CN0020001N9+00001+00001102191ADDAY121999GF108991081061004501999999MA1999999096131MD1210051+9999MW1101
0102066100999991973020812004+46817+006950FM-12+048999999V0202601N00151004201CN0050001N9+00401+00001102151ADDAA106000091AY121999GF105991051051004501999999MA1999999096141MD1810011+9999MW1101EQDQ01  00003PRCP99
0072066100999991973020815004+46817+006950FM-12+048999999V0203401N00201004201CN0070001N9+00301+00201101921ADDAY121999GF106991061051004501999011MA1999999095971MD1710171+9999MW1101
0096066100999991973020818004+46817+006950FM-12+048999999V0209991C00001220001CN0070001N9+00101+00001101951ADDAA199000091AY111999GF102991021051004501001011KA1999M+00401MA1999999095961MD1610011+9999MW1101
0072066100999991973020821004+46817+006950FM-12+048999999V0209991C00001220001CN0050001N9-00101-00101101971ADDAY101999GF100991001001999999001001MA1999999095931MD1810031+9999MW1101
0102066100999991973020900004+46817+006950FM-12+048999999V0209991C00001004201CN0020001N9-00101-00101101861ADDAA106000091AY111999GF108991081061004501999999MA1999999095821MD1710111+9999MW1101EQDQ01  00003PRCP99
0072066100999991973020903004+46817+006950FM-12+048999999V0201301N00101002101CN0015001N9-00201-00201101691ADDAY121999GF108991081061002501999999MA1999999095651MD1710171+9999MW1101
0139066100999991973020906004+46817+006950FM-12+048999999V0203601N00101002101CN0020001N9-00201-00201101511ADDAA199000091AJ100009199999999AY121999GF108991081061002501999999IA1139KA1999N-00201MA1999999095431MD1710221+9999MW1101REMSYN01125530 94028
0072066100999991973020909004+46817+006950FM-12+048999999V0201901N00051220001CN0020001N9-00101-00101101411ADDAY111999GF103991031001999999041011MA1999999095371MD1710061+9999MW1101
0102066100999991973020912004+46817+006950FM-12+048999999V0203501N00101036001CN0200001N9+00501+00201101151ADDAA106000091AY111999GF108991081001999999041999MA1999999095251MD1810121+9999MW1031EQDQ01  00003PRCP99
0072066100999991973020915004+46817+006950FM-12+048999999V0202201N00251036001CN0200001N9+00801+00101100941ADDAY121999GF108991081001999999021999MA1999999095121MD1710131+9999MW1031
0096066100999991973020918004+46817+006950FM-12+048999999V0202401N00671004201CN0060001N9+00801+00601100981ADDAA199999929AY161999GF108991081061004501999999KA1999M+00901MA1999999095121MD1410001+9999MW1611
0072066100999991973020921004+46817+006950FM-12+048999999V0202101N00511036001CN0080001N9+00601+00401100981ADDAY161999GF108991081001999999071999MA1999999095081MD1710041+9999MW1611
0102066100999991973021000004+46817+006950FM-12+048999999V0202001N00301036001CN0100001N9+00501+00301100831ADDAA106000591AY161999GF108991081001999999021999MA1999999094981MD1710101+9999MW1611EQDQ01  00053PRCP99
0072066100999991973021003004+46817+006950FM-12+048999999V0202101N00461036001CN0200001N9+00401+00101100991ADDAY161999GF108991081001999999071999MA1999999095041MD1310061+9999MW1611
0139066100999991973021006004+46817+006950FM-12+048999999V0202301N00361036001CN0200001N9+00201+00201101161ADDAA199003091AJ100009199999999AY161999GF108991081001999999071999IA1109KA1999N+00201MA1999999095211MD1210171+9999MW1601REMSYN01125420 94003
0072066100999991973021009004+46817+006950FM-12+048999999V0202201N00411036001CN0200001N9+00201+00101101381ADDAY171999GF108991041051002501071999MA1999999095391MD1210181+9999MW1681
0102066100999991973021012004+46817+006950FM-12+048999999V0202601N00361002101CN0230001N9+00301+00001101421ADDAA106999929AY171999GF106991051071002501071011MA1999999095471MD1210081+9999MW1771EQDQ01  99993PRCP99
0072066100999991973021015004+46817+006950FM-12+048999999V0202701N00511220001CN0300001N9+00301-00201101471ADDAY121999GF104991021071002501071011MA1999999095521MD1310051+9999MW1011
0096066100999991973021018004+46817+006950FM-12+048999999V0202001N00561036001CN0250001N9+00201-00301101621ADDAA199999929AY121999GF106991021071004501071011KA1999M+00401MA1999999095631MD1210111+9999MW1031
0072066100999991973021021004+46817+006950FM-12+048999999V0202001N00561036001CN0200001N9+00101-00201101501ADDAY121999GF108991081001999999021999MA1999999095511MD1810121+9999MW1031
0102066100999991973021100004+46817+006950FM-12+048999999V0202101N00561000601CN0010001N9+00001-00101101331ADDAA106001091AY171999GF109991091999999999999999MA1999999095291MD1710221+9999MW1731EQDQ01  00103PRCP99
0072066100999991973021103004+46817+006950FM-12+048999999V0201901N00411002101CN0080001N9+00001+00001101361ADDAY171999GF108991081071002501999999MA1999999095371MD1310081+9999MW1711
0139066100999991973021106004+46817+006950FM-12+048999999V0200901N001519999999N0200001N9-00101-00101101631ADDAA199005091AJ100049199999999AY171999GF107991999999999999999999IA1209KA1999N-00101MA1999999095591MD1210221+9999MW1701REMSYN01125272 94029
0072066100999991973021109004+46817+006950FM-12+048999999V0202101N00301009001CN0080001N9-00101-00101101901ADDAY171999GF107991071081004501999999MA1999999095861MD1210271+9999MW1701
0102066100999991973021112004+46817+006950FM-12+048999999V0202001N00301009001CN0120001N9+00101+00001102141ADDAA106999929AY171999GF107991071081004501999999MA1999999096081MD1110221+9999MW1021EQDQ01  99993PRCP99
0072066100999991973021115004+46817+006950FM-12+048999999V0202001N00301009001CN0100001N9+00101+00001102211ADDAY171999GF107991071081004501999999MA1999999096151MD1210071+9999MW1021
0096066100999991973021118004+46817+006950FM-12+048999999V0201801N00151009001CN0080001N9+00101-00101102441ADDAA199999929AY121999GF107991071081004501999999KA1999M+00201MA1999999096381MD1210231+9999MW1101
0072066100999991973021121004+46817+006950FM-12+048999999V0202001N00151009001CN0120001N9+00001-00101102571ADDAY121999GF107991071081004501999999MA1999999096571MD1210191+9999MW1021
0102066100999991973021200004+46817+006950FM-12+048999999V0202101N00301009001CN0180001N9-00101-00201102671ADDAA106999929AY171999GF108991081081004501999999MA1999999096561MD1810011+9999MW1021EQDQ01  99993PRCP99
0072066100999991973021203004+46817+006950FM-12+048999999V0202001N00411009001CN0180001N9+00001-00201102601ADDAY121999GF107991071081004501999999MA1999999096491MD1610071+9999MW1021
0139066100999991973021206004+46817+006950FM-12+048999999V0202101N00301036001CN0200001N9+00001-00101102451ADDAA199999929AJ100049199999999AY121999GF108991081001999999071999IA1209KA1999N-00101MA1999999096391MD1610101+9999MW1031REMSYN01125372 94013
0072066100999991973021209004+46817+006950FM-12+048999999V0202301N00301036001CN0150001N9+00101-00101102261ADDAY121999GF107991031051008001071999MA1999999096201MD1710191+9999MW1011
0102066100999991973021212004+46817+006950FM-12+048999999V0201901N00611036001CN0200001N9+00201+00001101981ADDAA106000091AY121999GF107991041051008001071999MA1999999095991MD1710211+9999MW1151EQDQ01  00003PRCP99
0072066100999991973021215004+46817+006950FM-12+048999999V0202001N00721007501CN0200001N9+00301-00101101461ADDAY121999GF108991051051008001071999MA1999999095511MD1710481+9999MW1151
0096066100999991973021218004+46817+006950FM-12+048999999V0202001N00671036001CN0150001N9+00201-00201100981ADDAA199000091AY121999GF108991021051008001021999KA1999M+00301MA1999999095031MD1710481+9999MW1021
0091066100999991973021303004+46817+006950FM-12+048999999V0202201N00561036001CN0100001N9+00301+00201099591ADDAY171999GF108991081001999999021999MA1999999093751MD1710411+9999MW1691EQDQ01+999990APOSP 
0139066100999991973021306004+46817+006950FM-12+048999999V0202001N00511012001CN0180001N9+00301+00201099501ADDAA199007091AJ100009199999999AY161999GF108991051071012501021999IA1109KA1999N+00101MA1999999093681MD1810091+9999MW1611REMSYN01125020 94000
0072066100999991973021309004+46817+006950FM-12+048999999V0202001N00611007501CN0120001N9+00301+00301099471ADDAY161999GF108991051071008001021999MA1999999093651MD1610031+9999MW1611
0102066100999991973021312004+46817+006950FM-12+048999999V0202101N00461007501CN0060001N9+00301+00101099471ADDAA106001091AY161999GF108991051071008001021999MA1999999093651MD1410001+9999MW1611EQDQ01  00103PRCP99
0072066100999991973021315004+46817+006950FM-12+048999999V0202001N00671012001CN0100001N9+00301-00101099401ADDAY161999GF108991061081008001021999MA1999999093581MD1510071+9999MW1151
0096066100999991973021318004+46817+006950FM-12+048999999V0202001N00251220001CN0300001N9+00001-00101099601ADDAA199003091AY171999GF103991031081008001001001KA1999M+00301MA1999999093731MD1210151+9999MW1011
0072066100999991973021321004+46817+006950FM-12+048999999V0202101N00151220001CN0400001N9-00201-00301099671ADDAY101999GF102991021001999999041001MA1999999093761MD1010031+9999MW1021
0102066100999991973021400004+46817+006950FM-12+048999999V0202601N00051036001CN0280001N9-00201-00301099641ADDAA106000091AY111999GF107991071001999999031999MA1999999093691MD1710071+9999MW1031EQDQ01  00003PRCP99
0072066100999991973021403004+46817+006950FM-12+048999999V0202201N00201036001CN0015001N9-00101-00101099521ADDAY171999GF108991081001999999021999MA1999999093611MD1710081+9999MW1731
0139066100999991973021406004+46817+006950FM-12+048999999V0201901N00201036001CN0080001N9-00201-00201099471ADDAA199003091AJ100089199999999AY171999GF107991041071008001021999IA1209KA1999N-00301MA1999999093561MD1710051+9999MW1011REMSYN01125573 94000
0072066100999991973021409004+46817+006950FM-12+048999999V0201101N00151220001CN0250001N9-00401-00401099491ADDAY111999GF103991031051004501001001MA1999999093541MD1710021+9999MW1141
0102066100999991973021412004+46817+006950FM-12+048999999V0201901N00151220001CN0300001N9+00101-00401099281ADDAA106000091AY101999GF101991011051004501001001MA1999999093411MD1710131+9999MW1011EQDQ01  00003PRCP99
0072066100999991973021415004+46817+006950FM-12+048999999V0200301N00101220001CN0300001N9+00401-00601099051ADDAY101999GF101991011051008001001001MA1999999093231MD1710181+9999MW1021
0096066100999991973021418004+46817+006950FM-12+048999999V0201101N00151220001CN0250001N9-00201-00601099151ADDAA199000091AY101999GF101991011051008001001001KA1999M+00401MA1999999093201MD1710031+9999MW1021
0072066100999991973021421004+46817+006950FM-12+048999999V0201801N00151220001CN0200001N9-00401-00501099181ADDAY101999GF100991001001999999001001MA1999999093231MD1210031+9999MW1021
0102066100999991973021500004+46817+006950FM-12+048999999V0209991C00001220001CN0280001N9-00201-00301099201ADDAA106000091AY101999GF101991001001999999001021MA1999999093251MD1310021+9999MW1031EQDQ01  00003PRCP99
0072066100999991973021503004+46817+006950FM-12+048999999V0209991C00001220001CN0200001N9-00901-01001099371ADDAY101999GF102991001001999999001021MA1999999093271MD1110021+9999MW1021
0139066100999991973021506004+46817+006950FM-12+048999999V0209991C00001220001CN0150001N9-00901-01001099491ADDAA199000091AJ100049199999999AY101999GF103991021051008001001021IA1319KA1999N-00901MA1999999093391MD1210121+9999MW1031REMSYN01126492 94080
0072066100999991973021509004+46817+006950FM-12+048999999V0201001N00101220001CN0150001N9-00701-00901099571ADDAY101999GF104991011001999999041051MA1999999093521MD1210131+9999MW1031
0102066100999991973021512004+46817+006950FM-12+048999999V0209991C00001036001CN0200001N9-00101-00601099471ADDAA106000091AY101999GF105991011051008001041051MA1999999093561MD1110041+9999MW1031EQDQ01  00003PRCP99
0072066100999991973021515004+46817+006950FM-12+048999999V0200401N00051220001CN0300001N9+00101-00401099421ADDAY121999GF104991011001999999041021MA1999999093551MD1510011+9999MW1011
0096066100999991973021518004+46817+006950FM-12+048999999V0209991C00001220001CN0200001N9-00301-00601099611ADDAA199000091AY101999GF101991001001999999001021KA1999M+00101MA1999999093661MD1210111+9999MW1021
0072066100999991973021521004+46817+006950FM-12+048999999V0209991C00001220001CN0200001N9-00601-00701099791ADDAY101999GF100991001001999999001001MA1999999093791MD1210131+9999MW1021
0102066100999991973021600004+46817+006950FM-12+048999999V0201901N00101220001CN0180001N9-00701-00701099891ADDAA106000091AY101999GF103991001001999999001021MA1999999093841MD1210051+9999MW1031EQDQ01  00003PRCP99
0072066100999991973021603004+46817+006950FM-12+048999999V0201301N00051220001CN0170001N9-00801-00901100001ADDAY101999GF103991001001999999001011MA1999999093901MD1210061+9999MW1021
0139066100999991973021606004+46817+006950FM-12+048999999V0209991C00001036001CN0050001N9-00701-00801100031ADDAA199000091AJ100049199999999AY111999GF108991081001999999071999IA1319KA1999N-00901MA1999999093981MD1210081+9999MW1101REMSYN01126492 94092
0072066100999991973021609004+46817+006950FM-12+048999999V0209991C00001004201CN0030001N9-00401-00501100241ADDAY121999GF108991081061004501999999MA1999999094181MD1210201+9999MW1101
0132066100999991973021612004+46817+006950FM-12+048999999V0209991C00001002101CN0030001N9-00201-00201100301ADDAA106000091AY121999GF108991081061002501999999MA1999999094311MD1210101+9999MW1101REMSYN00519428EQDQ01+999990APOSP Q02  00003PRCP99
0072066100999991973021615004+46817+006950FM-12+048999999V0200401N00251004201CN0040001N9-00101-00201100411ADDAY121999GF108991081061004501999999MA1999999094441MD1210161+9999MW1101
0096066100999991973021618004+46817+006950FM-12+048999999V0200401N00101004201CN0100001N9-00201-00401100701ADDAA199000091AY121999GF108991081061004501999999KA1999M-00101MA1999999094731MD1210291+9999MW1101
0072066100999991973021621004+46817+006950FM-12+048999999V0201801N00051004201CN0080001N9-00201-00301100941ADDAY121999GF108991081061004501999999MA1999999094971MD1210241+9999MW1101
0102066100999991973021700004+46817+006950FM-12+048999999V0209991C00001004201CN0080001N9-00201-00301101131ADDAA106000091AY121999GF108991081061004501999999MA1999999095141MD1210171+9999MW1101EQDQ01  00003PRCP99
0072066100999991973021703004+46817+006950FM-12+048999999V0200601N00101004201CN0080001N9-00201-00201101261ADDAY121999GF108991081061004501999999MA1999999095221MD1110081+9999MW1101
0139066100999991973021706004+46817+006950FM-12+048999999V0209991C00001004201CN0050001N9-00201-00501101471ADDAA199000091AJ100049199999999AY121999GF108991081061004501999999IA1319KA1999N-00201MA1999999095391MD1210171+9999MW1101REMSYN01125592 94000
0072066100999991973021709004+46817+006950FM-12+048999999V0209991C00001004201CN0070001N9-00201-00401101601ADDAY121999GF108991081061004501999999MA1999999095561MD1210171+9999MW1101
0102066100999991973021712004+46817+006950FM-12+048999999V0200301N003019999999N0070001N9+00001-00201101621ADDAA106000091AY121999GF107991041061004501999011MA1999999095631MD1110071+9999MW1101EQDQ01  00003PRCP99
0072066100999991973021715004+46817+006950FM-12+048999999V0200801N00201090001CN0070001N9+00001-00201101621ADDAY121999GF108991001001999999001071MA1999999095631MD1410001+9999MW1101
0096066100999991973021718004+46817+006950FM-12+048999999V0209991C00001021001CN0090001N9-00101-00501101781ADDAA199000091AY111999GF108991081001022501021999KA1999M+00101MA1999999095741MD1210111+9999MW1111
0072066100999991973021721004+46817+006950FM-12+048999999V0209991C00001220001CN0090001N9-00401-00801102001ADDAY121999GF104991021001017501021011MA1999999095871MD1210131+9999MW1101
0102066100999991973021800004+46817+006950FM-12+048999999V0201801N00201220001CN0150001N9-00501-00801102011ADDAA106000091AY111999GF103991011001999999041021MA1999999095881MD1210011+9999MW1011EQDQ01  00003PRCP99
0072066100999991973021803004+46817+006950FM-12+048999999V0201801N00201007501CN0080001N9-00401-00801102001ADDAY111999GF108991061071008001021999MA1999999095871MD1710011+9999MW1101
0139066100999991973021806004+46817+006950FM-12+048999999V0202001N00511007501CN0060001N9-00301-00601101931ADDAA199999929AJ100049199999999AY171999GF108991051071008001021999IA1309KA1999N-00601MA1999999095851MD1710021+9999MW1701REMSYN01126082 94006
0072066100999991973021809004+46817+006950FM-12+048999999V0202001N00411007501CN0080001N9-00101-00501101961ADDAY171999GF107991071071008001999999MA1999999095921MD1210071+9999MW1701
0102066100999991973021812004+46817+006950FM-12+048999999V0202401N00411036001CN0050001N9+00101-00401101951ADDAA106999929AY171999GF108991041051008001071999MA1999999095961MD1210041+9999MW1701EQDQ01  99993PRCP99
0072066100999991973021815004+46817+006950FM-12+048999999V0202001N00301036001CN0060001N9+00101-00401101881ADDAY171999GF108991041051008001071999MA1999999095891MD1710071+9999MW1701
0096066100999991973021818004+46817+006950FM-12+048999999V0202001N00201036001CN0070001N9+00001-00401101941ADDAA199999929AY121999GF108991021051008001071999KA1999M+00101MA1999999095901MD1210011+9999MW1101
0072066100999991973021821004+46817+006950FM-12+048999999V0202101N00251036001CN0070001N9-00101-00301102111ADDAY121999GF108991021051008001021999MA1999999096001MD1210101+9999MW1101
0102066100999991973021900004+46817+006950FM-12+048999999V0201901N00251036001CN0070001N9-00201-00201102161ADDAA106999929AY121999GF108991031071004501021999MA1999999096051MD1210051+9999MW1711EQDQ01  99993PRCP99
0072066100999991973021903004+46817+006950FM-12+048999999V0202001N00201004201CN0080001N9-00201-00201102161ADDAY171999GF108991051071004501021999MA1999999096051MD1410001+9999MW1711
0139066100999991973021906004+46817+006950FM-12+048999999V0201901N00101036001CN0080001N9-00201-00301102221ADDAA199999929AJ100049199999999AY171999GF108991021051004501071999IA1309KA1999N-00201MA1999999096071MD1210021+9999MW1101REMSYN01125582 94003
0072066100999991973021909004+46817+006950FM-12+048999999V0202101N00101036001CN0060001N9-00101-00301102301ADDAY121999GF108991081001999999071999MA1999999096191MD1210121+9999MW1101
0102066100999991973021912004+46817+006950FM-12+048999999V0202701N00151036001CN0030001N9+00001-00301102271ADDAA106999929AY171999GF108991081001999999021999MA1999999096211MD1110021+9999MW1731EQDQ01  99993PRCP99
0072066100999991973021915004+46817+006950FM-12+048999999V0209991C00001036001CN0030001N9+00001+00001102281ADDAY171999GF108991081001999999021999MA1999999096171MD1710041+9999MW1731
0115066100999991973021918004+46817+006950FM-12+048999999V0209991C00001000151CN0001001N9-00101-00101102321ADDAA199002091AY171999GF109991091999999999999999KA1999M+99999MA1999999096211MD1210041+9999MW1771EQDQ01 -00202ATMX  
0072066100999991973021921004+46817+006950FM-12+048999999V0200701N00051036001CN0050001N9-00301-00301102461ADDAY171999GF108991081001999999071999MA1999999096311MD1210101+9999MW1101
0102066100999991973022000004+46817+006950FM-12+048999999V0200501N00101002101CN0020001N9-00301-00301102541ADDAA106000091AY121999GF108991081061002501999999MA1999999096391MD1210081+9999MW1101EQDQ01  00003PRCP99
0139066100999991973022006004+46817+006950FM-12+048999999V0200601N00101220001CN0060001N9-00301-00401102661ADDAA199000091AJ100049199999999AY111999GF101991011051008001001001IA1319KA1999N-00401MA1999999096511MD1210061+9999MW1101REMSYN01125792 94003
0072066100999991973022009004+46817+006950FM-12+048999999V0201001N00051220001CN0060001N9-00201-00401102731ADDAY101999GF102991021051004501001001MA1999999096621MD1210111+9999MW1101
0102066100999991973022012004+46817+006950FM-12+048999999V0200401N00461220001CN0080001N9+00201-00201102701ADDAA106000091AY101999GF103991031051008001001001MA1999999096691MD1210071+9999MW1101EQDQ01  00003PRCP99
0072066100999991973022015004+46817+006950FM-12+048999999V0200301N00511220001CN0100001N9+00201-00301102631ADDAY101999GF102991021051008001001001MA1999999096621MD1710071+9999MW1021
0096066100999991973022018004+46817+006950FM-12+048999999V0200401N00301220001CN0080001N9+00101-00501102811ADDAA199000091AY101999GF103991031051008001001001KA1999M+00301MA1999999096751MD1210131+9999MW1101
0072066100999991973022021004+46817+006950FM-12+048999999V0200501N00201007501CN0080001N9-00101-00401102951ADDAY111999GF105991051051008001001001MA1999999096841MD1210091+9999MW1101
0134066100999991973022100004+46817+006950FM-12+048999999V0200901N00101220001CN0110001N9-00301-00601102991ADDAA106000091AY111999GF102991011051008001001011MA1999999096841MD1210041+9999MW1011EQDQ01+000082APCTENQ02+000002APC3  Q03  00003PRCP99
0072066100999991973022103004+46817+006950FM-12+048999999V0201801N00101220001CN0120001N9-00401-00601102991ADDAY101999GF100991001001999999001001MA1999999096801MD1710041+9999MW1011
0139066100999991973022106004+46817+006950FM-12+048999999V0201801N00101220001CN0030001N9-00501-00601103041ADDAA199000091AJ100019199999999AY101999GF100991001001999999001001IA1189KA1999N-00601MA1999999096851MD1210051+9999MW1101REMSYN01125851 94090
0072066100999991973022109004+46817+006950FM-12+048999999V0209991C00001220001CN0040001N9-00201-00301103041ADDAY101999GF101991001001999999001011MA1999999096891MD1210041+9999MW1101
0102066100999991973022112004+46817+006950FM-12+048999999V0202701N00101220001CN0080001N9+00301-00501102791ADDAA106000091AY101999GF102991001001999999001011MA1999999096781MD1710111+9999MW1101EQDQ01  00003PRCP99
0072066100999991973022115004+46817+006950FM-12+048999999V0202701N00151012001CN0080001N9+00601-00401102611ADDAY111999GF107991061051012501041011MA1999999096651MD1710131+9999MW1031
0096066100999991973022118004+46817+006950FM-12+048999999V0202101N00151012001CN0080001N9+00401-00301102621ADDAA199000091AY121999GF107991051051012501071999KA1999M+00601MA1999999096611MD1510041+9999MW1101
0072066100999991973022121004+46817+006950FM-12+048999999V0202201N00411012001CN0070001N9+00301-00301102561ADDAY121999GF108991051051012501071999MA1999999096551MD1710061+9999MW1101
0102066100999991973022200004+46817+006950FM-12+048999999V0202101N00301012001CN0070001N9+00401-00101102481ADDAA106000091AY121999GF108991061051012501071999MA1999999096471MD1810081+9999MW1101EQDQ01  00003PRCP99
0072066100999991973022203004+46817+006950FM-12+048999999V0201901N00361012001CN0070001N9+00301+00201102281ADDAY121999GF108991081071012501999999MA1999999096271MD1710201+9999MW1101
0072066100999991973022209004+46817+006950FM-12+048999999V0202101N00361036001CN0080001N9+00401+00401102181ADDAY161999GF107991021071004501071999MA1999999096171MD1710051+9999MW1611
0102066100999991973022212004+46817+006950FM-12+048999999V0202001N00411004201CN0160001N9+00601+00301102071ADDAA106000291AY161999GF107991071051004501999999MA1999999096111MD1010001+9999MW1611EQDQ01  00023PRCP99
0072066100999991973022215004+46817+006950FM-12+048999999V0202101N00411004201CN0180001N9+00501+00301101971ADDAY161999GF107991071051004501999999MA1999999096011MD1710101+9999MW1021
0096066100999991973022218004+46817+006950FM-12+048999999V0202201N00411004201CN0120001N9+00401+00301101841ADDAA199000591AY161999GF107991051071004501021999KA1999M+00601MA1999999095941MD1710071+9999MW1601
0072066100999991973022221004+46817+006950FM-12+048999999V0202301N00561004201CN0100001N9+00401+00001101941ADDAY161999GF108991051071004501021999MA1999999095991MD1110051+9999MW1621
0102066100999991973022300004+46817+006950FM-12+048999999V0201901N00461004201CN9999999N9+00301+00001102011ADDAA106001091AY121999GF108991051071004501021999MA1999999096001MD1610011+9999MW1161EQDQ01  00103PRCP99
0072066100999991973022303004+46817+006950FM-12+048999999V0201901N00461220001CN0140001N9+00101+00001101901ADDAY161999GF103991031051004501999999MA1999999095911MD1810091+9999MW1011
0139066100999991973022306004+46817+006950FM-12+048999999V0202001N00361012001CN0100001N9+00001+00001101891ADDAA199001091AJ100009199999999AY181999GF107991071081008001999999IA1089KA1999N+00001MA1999999095901MD1710011+9999MW1151REMSYN01125110 94001
0072066100999991973022309004+46817+006950FM-12+048999999V0202101N00561009001CN0150001N9+00101+00001101841ADDAY181999GF106991061081004501001001MA1999999095851MD1710051+9999MW1151
0102066100999991973022312004+46817+006950FM-12+048999999V0202601N00611009001CN9999999N9+00301+00001101761ADDAA106000591AY171999GF108991081081004501999999MA1999999095811MD1710041+9999MW1721EQDQ01  00053PRCP99
0072066100999991973022315004+46817+006950FM-12+048999999V0202101N00611036001CN0250001N9+00201+00001101511ADDAY171999GF105991031081004501041011MA1999999095561MD1710251+9999MW1011
0096066100999991973022318004+46817+006950FM-12+048999999V0202101N00511036001CN0120001N9+00201+00001101411ADDAA199999999AY171999GF107991041081004501021999KA1999M+00401MA1999999095421MD1710141+9999MW1031
0072066100999991973022321004+46817+006950FM-12+048999999V0202001N00511009001CN0025001N9+00101+00101101151ADDAY171999GF108991061081004501021999MA1999999095161MD1710261+9999MW1721
0102066100999991973022500004+46817+006950FM-12+048999999V0209991C00001007501CN0200001N9-00201-00201100521ADDAA106000591AY171999GF108991081051008001999999MA1999999094551MD1510041+9999MW1021EQDQ01  00053PRCP99
0064066100999991973022503004+46817+006950FM-12+048999999V0202001N00101012001CN0300001N9-00301-00301100811ADDGF108991081081008001999999MA1999999094791MD1210241+9999MW1711
0139066100999991973022506004+46817+006950FM-12+048999999V0201901N00251220001CN0300001N9-00401-00501100951ADDAA199000591AJ100089199999999AY121999GF104991041081008001001001IA1319KA1999N-00501MA1999999094891MD1210101+9999MW1021REMSYN01125993 94022
0072066100999991973022509004+46817+006950FM-12+048999999V0201901N00151009001CN0030001N9-00301-00301101201ADDAY171999GF108991081081004501999999MA1999999095121MD1210231+9999MW1711
0102066100999991973022512004+46817+006950FM-12+048999999V0202301N00361009001CN0080001N9+00001-00201101211ADDAA106000291AY171999GF199999051081004501999999MA1999999095221MD1210101+9999MW1711EQDQ01  00023PRCP99
0072066100999991973022515004+46817+006950FM-12+048999999V0202501N00301009001CN0250001N9+00301-00901101221ADDAY171999GF106991051081004501999999MA1999999095271MD1210051+9999MW1031
0096066100999991973022518004+46817+006950FM-12+048999999V0202001N00301009001CN0200001N9+00001-00801101311ADDAA199000291AY121999GF107991051081004501071999KA1999M+00301MA1999999095271MD1410001+9999MW1021
0072066100999991973022521004+46817+006950FM-12+048999999V0202001N00201009001CN0120001N9-00201-00601101171ADDAY111999GF107991071081004501999999MA1999999095131MD1710141+9999MW1031
0112066100999991973022600004+46817+006950FM-12+048999999V0209991C00001009001CN9999999N9-00401-00401101091ADDAA106999929AY121999GF108991081081004501999999MA1999999095011MD1710121+9999EQDQ01+000602PRSWM1Q02  99993PRCP99
0072066100999991973022603004+46817+006950FM-12+048999999V0201801N00051220001CN0060001N9-00601-00901101031ADDAY121999GF104991041081008001999999MA1999999094921MD1810091+9999MW1011
0174066100999991973022606004+46817+006950FM-12+048999999V0202001N00101030001CN0070001N9-00701+99999101041ADDAA199999929AJ100049199999999AY121999GF107991071051999999999999IA1319KA1999N-00701MA1999999094931MD1210011+9999MW1031REMSYN01125892 94036EQDQ01+000992SCOLCBQ02+022523ATOD  
0072066100999991973022609004+46817+006950FM-12+048999999V0200501N00151220001CN0150001N9-00401-00801101141ADDAY101999GF103991011051004501001011MA1999999095061MD1210131+9999MW1011
0148066100999991973022612004+46817+006950FM-12+048999999V0200401N00411220001CN0150001N9+00001-00301101211ADDAA106000091AY101999GA1999+999999029GF103991031051008001001001MA1999999095171MD1210111+9999MW1011REMSYN00570*62EQDQ01    003SCCGA1Q02  00003PRCP99
0072066100999991973022615004+46817+006950FM-12+048999999V0200501N00461220001CN0150001N9+00201-00701101301ADDAY101999GF103991031051008001001001MA1999999095311MD1210141+9999MW1021
0096066100999991973022618004+46817+006950FM-12+048999999V0200701N00151220001CN0150001N9-00101-00601101561ADDAA199000091AY101999GF102991021081008001001001KA1999M+00201MA1999999095521MD1210211+9999MW1011
0072066100999991973022621004+46817+006950FM-12+048999999V0202801N00101220001CN0120001N9-00401-00601101851ADDAY101999GF100991001001999999001001MA1999999095721MD1210201+9999MW1011
0102066100999991973022700004+46817+006950FM-12+048999999V0201301N00101220001CN0120001N9-00501-00701101921ADDAA106000091AY101999GF100991001001999999001001MA1999999095791MD1110071+9999MW1021EQDQ01  00003PRCP99
0072066100999991973022703004+46817+006950FM-12+048999999V0209991C00001220001CN0120001N9-00701-00801102051ADDAY101999GF100991001001999999001001MA1999999095871MD1110081+9999MW1021
0139066100999991973022706004+46817+006950FM-12+048999999V0201401N00051220001CN0120001N9-00901-01001102201ADDAA199000091AJ100019199999999AY101999GF104991031051008001001011IA1309KA1999N-00901MA1999999095981MD1210111+9999MW1031REMSYN01126181 94090
0072066100999991973022709004+46817+006950FM-12+048999999V0201901N00101220001CN0150001N9-00501-00801102341ADDAY181999GF101991011081012501001001MA1999999096151MD1210171+9999MW1011
0102066100999991973022712004+46817+006950FM-12+048999999V0200301N00361220001CN0150001N9+00001-00501102351ADDAA106999929AY111999GF104991041051008001001001MA1999999096241MD1210091+9999MW1031EQDQ01  99993PRCP99
0072066100999991973022715004+46817+006950FM-12+048999999V0200101N00411007501CN0120001N9+00101-00801102371ADDAY121999GF106991061021008001999999MA1999999096311MD1310071+9999MW1851
0096066100999991973022718004+46817+006950FM-12+048999999V0200601N00301012001CN0150001N9-00201-00601102711ADDAA199999929AY181999GF107991071081008001999999KA1999M+00101MA1999999096551MD1210241+9999MW1031
0072066100999991973022721004+46817+006950FM-12+048999999V0200601N00251220001CN0150001N9-00401-00601102891ADDAY121999GF100991001001999999001001MA1999999096741MD1210191+9999MW1011
0102066100999991973022800004+46817+006950FM-12+048999999V0200301N00151220001CN0150001N9-00501-00801103061ADDAA106000091AY101999GF100991001001999999001001MA1999999096871MD1210131+9999MW1021EQDQ01  00003PRCP99
0072066100999991973022803004+46817+006950FM-12+048999999V0200501N00201220001CN0100001N9-00601-00901103191ADDAY101999GF100991001001999999001001MA1999999096961MD1210091+9999MW1021
0139066100999991973022806004+46817+006950FM-12+048999999V0200301N00201220001CN0100001N9-00701-01001103411ADDAA199000091AJ100009199999999AY101999GF100991001001999999001001IA1189KA1999N-00701MA1999999097101MD1210141+9999MW1021REMSYN01126150 94066
0072066100999991973022809004+46817+006950FM-12+048999999V0200401N00411220001CN0150001N9-00401-00901103461ADDAY101999GF100991001001999999001001MA1999999097201MD1210101+9999MW1021
0102066100999991973022812004+46817+006950FM-12+048999999V0200301N00671220001CN0400001N9-00101-00701103361ADDAA106000091AY101999GF100991001001999999001001MA1999999097201MD1410001+9999MW1021EQDQ01  00003PRCP99
0096066100999991973022818004+46817+006950FM-12+048999999V0200701N00411220001CN0250001N9-00101-01201103431ADDAA199000091AY101999GF103991021001999999041011KA1999M+00101MA1999999097271MD1210061+9999MW1031
0072066100999991973022821004+46817+006950FM-12+048999999V0209991C00001090001CN0250001N9-00301-01201103531ADDAY121999GF106991041001999999041091MA1999999097321MD1110051+9999MW1031
0102066100999991973030100004+46817+006950FM-12+048999999V0201901N00251220001CN0200001N9-00601-00901103551ADDAA106000091AY121999GF100991001001999999001001MA1999999097291MD1710031+9999MW1011EQDQ01  00003PRCP99
0072066100999991973030103004+46817+006950FM-12+048999999V0209991C00001220001CN0200001N9-00801-01001103671ADDAY101999GF100991001001999999001001MA1999999097311MD1110021+9999MW1021
0139066100999991973030106004+46817+006950FM-12+048999999V0202001N00101220001CN0120001N9-01001-01101103601ADDAA199000091AJ100009199999999AY101999GF100991001001999999001001IA1189KA1999N-01001MA1999999097301MD1710011+9999MW1021REMSYN01126250 94098
0072066100999991973030109004+46817+006950FM-12+048999999V0202001N00151220001CN0150001N9-00501-00901103571ADDAY101999GF103991001001999999001011MA1999999097311MD1210011+9999MW1031
0102066100999991973030112004+46817+006950FM-12+048999999V0209991V00101220001CN0150001N9+00101-00801103301ADDAA106000091AY101999GF102991011001999999041011MA1999999097181MD1810131+9999MW1021EQDQ01  00003PRCP99
0072066100999991973030115004+46817+006950FM-12+048999999V0200401N00101220001CN0120001N9+00401-00601102971ADDAY101999GF102991001001999999001021MA1999999096961MD1710221+9999MW1021
0096066100999991973030118004+46817+006950FM-12+048999999V0209991C00001220001CN0150001N9+00001-00601102971ADDAA199000091AY101999GF102991001001999999001021KA1999M+00401MA1999999096911MD1510051+9999MW1011
0072066100999991973030121004+46817+006950FM-12+048999999V0209991C00001220001CN0150001N9-00201-00501103031ADDAY101999GF100991001001999999001001MA1999999096881MD1810031+9999MW1011
0102066100999991973030200004+46817+006950FM-12+048999999V0202101N00151220001CN0150001N9-00401-00601103021ADDAA106000091AY101999GF100991001001999999001001MA1999999096831MD1710051+9999MW1021EQDQ01  00003PRCP99
0072066100999991973030203004+46817+006950FM-12+048999999V0209991C00001036001CN0200001N9-00401-00501102891ADDAY101999GF108991081001999999071999MA1999999096741MD1710091+9999MW1031
0139066100999991973030206004+46817+006950FM-12+048999999V0200801N00101036001CN0150001N9-00101-00301102771ADDAA199000091AJ100009199999999AY121999GF108991081001999999071999IA1189KA1999N-00401MA1999999096661MD1710081+9999MW1021REMSYN01126250 94098
0072066100999991973030209004+46817+006950FM-12+048999999V0201301N00051036001CN0150001N9+00001-00201102731ADDAY121999GF108991081001999999071999MA1999999096671MD1210011+9999MW1021
0102066100999991973030212004+46817+006950FM-12+048999999V0202801N00251036001CN0150001N9+00601-00401102681ADDAA106000091AY121999GF108991021051008001071999MA1999999096721MD1210051+9999MW1021EQDQ01  00003PRCP99
0072066100999991973030215004+46817+006950FM-12+048999999V0202201N00151036001CN0120001N9+00401-00101102881ADDAY161999GF108991081001999999021999MA1999999096871MD1210151+9999MW1151
0115066100999991973030218004+46817+006950FM-12+048999999V0209991C000019999999N0120001N9+00101+00001103191ADDAA199999929AY121999GF108991061071999999071999KA1999M+00601MA1999999097071MD1210201+9999MW1021EQDQ01+000992SCOLCB
0072066100999991973030221004+46817+006950FM-12+048999999V0201801N00101007501CN0040001N9+00101+00101103321ADDAY171999GF108991081071008001999999MA1999999097201MD1210131+9999MW1701
0102066100999991973030300004+46817+006950FM-12+048999999V0201901N00101004201CN0060001N9+00101+00101103361ADDAA106000291AY171999GF108991081051004501999999MA1999999097241MD1010001+9999MW1021EQDQ01  00023PRCP99
0072066100999991973030303004+46817+006950FM-12+048999999V0201801N00101007501CN0060001N9+00101+00101103371ADDAY121999GF108991081051008001999999MA1999999097251MD1310011+9999MW1021
0139066100999991973030306004+46817+006950FM-12+048999999V0201001N00051007501CN0040001N9+00001+00001103401ADDAA199000291AJ100009199999999AY121999GF108991081051008001999999IA1199KA1999N+00001MA1999999097281MD1210031+9999MW1101REMSYN01125260 94013
0072066100999991973030309004+46817+006950FM-12+048999999V0209991C00001220001CN0050001N9+00201+00101103441ADDAY101999GF103991021051012501041001MA1999999097371MD1210091+9999MW1101
0102066100999991973030312004+46817+006950FM-12+048999999V0200801N00201090001CN0180001N9+00601-00301103341ADDAA106000091AY111999GF106991031001999999041021MA1999999097361MD1710011+9999MW1031EQDQ01  00003PRCP99
0072066100999991973030315004+46817+006950FM-12+048999999V0201501N00151036001CN0180001N9+00701-00301103321ADDAY121999GF107991071001999999071999MA1999999097341MD1710021+9999MW1031
0096066100999991973030318004+46817+006950FM-12+048999999V0209991C00001090001CN0150001N9+00401-00401103341ADDAA199000091AY121999GF105991011001999999041021KA1999M+00701MA1999999097321MD1710021+9999MW1011
0072066100999991973030321004+46817+006950FM-12+048999999V0201901N00101220001CN0120001N9+00101-00401103431ADDAY111999GF103991001001999999001021MA1999999097311MD1710011+9999MW1011
0102066100999991973030400004+46817+006950FM-12+048999999V0201901N00151220001CN0120001N9+00001-00401103401ADDAA106000091AY101999GF100991001001999999001001MA1999999097281MD1710031+9999MW1011EQDQ01  00003PRCP99
0072066100999991973030403004+46817+006950FM-12+048999999V0209991C00001220001CN0100001N9-00101-00401103421ADDAY101999GF100991001001999999001001MA1999999097261MD1710021+9999MW1021
0139066100999991973030406004+46817+006950FM-12+048999999V0209991C00001220001CN0200001N9-00201-00301103511ADDAA199000091AJ100009199999999AY101999GF103991031001999999031001IA1139KA1999N-00301MA1999999097301MD1210041+9999MW1031REMSYN01125  0 94051
0072066100999991973030409004+46817+006950FM-12+048999999V0201901N00101220001CN0300001N9+00101-00301103491ADDAY111999GF104991041001999999031001MA1999999097371MD1210071+9999MW1031
0102066100999991973030412004+46817+006950FM-12+048999999V0200301N00101220001CN0300001N9+00701-00101103311ADDAA106000091AY111999GF104991041001999999031001MA1999999097331MD1810041+9999MW1021EQDQ01  00003PRCP99
0072066100999991973030415004+46817+006950FM-12+048999999V0203601N00151220001CN0300001N9+01001-00101103091ADDAY111999GF105991031001999999031011MA1999999097161MD1510171+9999MW1031
0096066100999991973030418004+46817+006950FM-12+048999999V0209991C00001090001CN0300001N9+00701-00201103141ADDAA199000091AY121999GF106991021001999999041021KA1999M+01001MA1999999097161MD1410001+9999MW1021
0072066100999991973030421004+46817+006950FM-12+048999999V0202001N00101220001CN0200001N9+00101-00101103311ADDAY121999GF103991001001999999001021MA1999999097191MD1210031+9999MW1011
0102066100999991973030500004+46817+006950FM-12+048999999V0202101N00201220001CN0080001N9+00101-00201103351ADDAA106000091AY101999GF100991001001999999001001MA1999999097231MD1210041+9999MW1101EQDQ01  00003PRCP99
0072066100999991973030503004+46817+006950FM-12+048999999V0209991C00001220001CN0080001N9-00101-00301103331ADDAY101999GF100991001001999999001001MA1999999097171MD1710061+9999MW1101
0158066100999991973030506004+46817+006950FM-12+048999999V0209999999999220001CN0190001N9-00301+99999103371ADDAA199000091AJ100009199999999AY101999GF101991011001999999041001IA1009KA1999N-00301MA1999999097161MD1710011+9999MW1021REMSYN01125600 94082EQDQ01+023023ATOD  
0072066100999991973030509004+46817+006950FM-12+048999999V0202001N00101036001CN0200001N9+00101+00001103271ADDAY111999GF106991051001999999041011MA1999999097151MD1710011+9999MW1031
0072066100999991973030512004+46817+006950FM-12+048999999V0209991C00001036001CN0200001N9+00701-00101103011ADDAY121999GF107991071001999999071999MA1999999097031MD1710121+9999MW1031
0072066100999991973030515004+46817+006950FM-12+048999999V0203601N000519999999N0200001N9+00901+00001102671ADDAY121999GF107991001001999999001999MA1999999096801MD1710231+9999MW1021
0096066100999991973030518004+46817+006950FM-12+048999999V0209991C00001090001CN0190001N9+00601+00201102631ADDAA199000091AY121999GF107991001001999999001061KA1999M+01001MA1999999096711MD1610091+9999MW1021
0072066100999991973030521004+46817+006950FM-12+048999999V0201501N00101090001CN0150001N9+00301+00101102721ADDAY121999GF107991001001999999001061MA1999999096711MD1410001+9999MW1021
0102066100999991973030600004+46817+006950FM-12+048999999V0209991C00001220001CN0080001N9+00101-00201102691ADDAA106000091AY111999GF100991001001999999001001MA1999999096631MD1710081+9999MW1101EQDQ01  00003PRCP99
0072066100999991973030603004+46817+006950FM-12+048999999V0209991C00001036001CN0080001N9+00101-00101102621ADDAY111999GF108991081001999999071999MA1999999096561MD1710071+9999MW1101
0139066100999991973030606004+46817+006950FM-12+048999999V0201001N00151036001CN0150001N9+00001+00001102621ADDAA199000091AJ100009199999999AY121999GF108991081001999999071999IA1009KA1999N+00001MA1999999096561MD1410001+9999MW1021REMSYN01125500 94033
0072066100999991973030609004+46817+006950FM-12+048999999V0209999999999036001CN0120001N9+00401+00101102561ADDAY121999GF107991011051008001071021MA1999999096601MD1210041+9999MW1011
0102066100999991973030612004+46817+006950FM-12+048999999V0202501N00301036001CN0200001N9+01001+00401102441ADDAA106000091AY121999GF106991011051008001071001MA1999999096611MD1210011+9999MW1021EQDQ01  00003PRCP99
0072066100999991973030615004+46817+006950FM-12+048999999V0203301N00301036001CN0300001N9+01001+00501102371ADDAY121999GF107991041051004501071999MA1999999096501MD1710111+9999MW1021
0102066100999991973030618004+46817+006950FM-12+048999999V0201801N00301036001CN0300001N9+00801+00201102301ADDAA199000091AY121999GF106991011051004501071999MA1999999096401MD1610071+9999MW1011EQDQ01+999990APOSP 
0072066100999991973030621004+46817+006950FM-12+048999999V0202001N00461036001CN0300001N9+00501+00301102371ADDAY181999GF108991081001999999071999MA1999999096411MD1710021+9999MW1031
0102066100999991973030700004+46817+006950FM-12+048999999V0202201N00301036001CN0200001N9+00401+00301102331ADDAA106000291AY161999GF108991031071004501021999MA1999999096321MD1710091+9999MW1601EQDQ01  00023PRCP99
0072066100999991973030703004+46817+006950FM-12+048999999V0202201N00301004201CN0100001N9+00101+00001102741ADDAY161999GF108991051071004501021999MA1999999096681MD1210361+9999MW1701
0139066100999991973030706004+46817+006950FM-12+048999999V0202001N00461004201CN9999999N9-00101-00101102911ADDAA199000591AJ100019199999999AY171999GF199999061071004501999999IA1309KA1999N-00101MA1999999096801MD1210121+9999MW1701REMSYN01125281 94021
0091066100999991973030709004+46817+006950FM-12+048999999V0202101N00301012001CN0060001N9+00101+00001102881ADDAY181999GF107991071081008001999999MA1999999096811MD1210021+9999MW1851EQDQ01+999990APOSP 
0102066100999991973030712004+46817+006950FM-12+048999999V0200401N00301012001CN0200001N9+00401+00101102841ADDAA106999929AY181999GF106991061081008001001001MA1999999096881MD1210061+9999MW1151EQDQ01  99993PRCP99
0072066100999991973030715004+46817+006950FM-12+048999999V0200201N00301012001CN0150001N9+00501+00201102841ADDAY181999GF107991071081008001999999MA1999999096881MD1410001+9999MW1851
0131066100999991973030718004+46817+006950FM-12+048999999V0200601N001519999999N0100001N9+00201+00101103121ADDAA199000591AY181999GF108991061081999999021999KA1999M+00901MA1999999097051MD1210121+9999MW1031EQDQ01+000992SCOLCBQ02+999990APOSP 
0072066100999991973030721004+46817+006950FM-12+048999999V0200401N00201012001CN0100001N9+00001+00001103181ADDAY121999GF106991061081008001999999MA1999999097061MD1110061+9999MW1011
0102066100999991973030800004+46817+006950FM-12+048999999V0200401N00411007501CN0120001N9+00101+00001103151ADDAA106999929AY171999GF108991081061008001999999MA1999999097031MD1810031+9999MW1701EQDQ01  99993PRCP99
0072066100999991973030803004+46817+006950FM-12+048999999V0200301N00561007501CN0120001N9+00101+00001103001ADDAY121999GF107991071051008001999999MA1999999096941MD1710091+9999MW1021
0139066100999991973030806004+46817+006950FM-12+048999999V0200501N00771220001CN0150001N9+00101-00101102991ADDAA199999929AJ100009199999999AY111999GF102991021051008001001001IA1089KA1999N+00001MA1999999096931MD1710011+9999MW1011REMSYN01125310 94023
0072066100999991973030809004+46817+006950FM-12+048999999V0200301N00671007501CN0180001N9+00201-00201103141ADDAY111999GF105991051051008001001001MA1999999097021MD1210091+9999MW1031
0102066100999991973030812004+46817+006950FM-12+048999999V0200501N00821220001CN0300001N9+00501-00101103051ADDAA106000091AY111999GF102991021051008001001001MA1999999097031MD1210011+9999MW1011EQDQ01  00003PRCP99
0072066100999991973030815004+46817+006950FM-12+048999999V0200501N00921220001CN0400001N9+00501-00601102911ADDAY101999GF101991011051012501001001MA1999999096951MD1710081+9999MW1021
0096066100999991973030818004+46817+006950FM-12+048999999V0200701N00561220001CN0300001N9+00301-00801103071ADDAA199000091AY101999GF104991041001999999041001KA1999M+00501MA1999999097001MD1310051+9999MW1031
